{
  "address": "0x5FbDB2315678afecb367f032d93F642f64180aa3",
  "abi": [
    {
      "inputs": [],
      "stateMutability": "nonpayable",
      "type": "constructor"
    },
    {
      "anonymous": false,
      "inputs": [
        {
          "indexed": true,
          "internalType": "address",
          "name": "owner",
          "type": "address"
        },
        {
          "indexed": true,
          "internalType": "address",
          "name": "spender",
          "type": "address"
        },
        {
          "indexed": false,
          "internalType": "uint256",
          "name": "value",
          "type": "uint256"
        }
      ],
      "name": "Approval",
      "type": "event"
    },
    {
      "anonymous": false,
      "inputs": [
        {
          "indexed": true,
          "internalType": "address",
          "name": "previousOwner",
          "type": "address"
        },
        {
          "indexed": true,
          "internalType": "address",
          "name": "newOwner",
          "type": "address"
        }
      ],
      "name": "OwnershipTransferred",
      "type": "event"
    },
    {
      "anonymous": false,
      "inputs": [
        {
          "indexed": true,
          "internalType": "address",
          "name": "from",
          "type": "address"
        },
        {
          "indexed": true,
          "internalType": "address",
          "name": "to",
          "type": "address"
        },
        {
          "indexed": false,
          "internalType": "uint256",
          "name": "value",
          "type": "uint256"
        }
      ],
      "name": "Transfer",
      "type": "event"
    },
    {
      "inputs": [
        {
          "internalType": "address",
          "name": "owner",
          "type": "address"
        },
        {
          "internalType": "address",
          "name": "spender",
          "type": "address"
        }
      ],
      "name": "allowance",
      "outputs": [
        {
          "internalType": "uint256",
          "name": "",
          "type": "uint256"
        }
      ],
      "stateMutability": "view",
      "type": "function"
    },
    {
      "inputs": [
        {
          "internalType": "address",
          "name": "spender",
          "type": "address"
        },
        {
          "internalType": "uint256",
          "name": "amount",
          "type": "uint256"
        }
      ],
      "name": "approve",
      "outputs": [
        {
          "internalType": "bool",
          "name": "",
          "type": "bool"
        }
      ],
      "stateMutability": "nonpayable",
      "type": "function"
    },
    {
      "inputs": [
        {
          "internalType": "address",
          "name": "account",
          "type": "address"
        }
      ],
      "name": "balanceOf",
      "outputs": [
        {
          "internalType": "uint256",
          "name": "",
          "type": "uint256"
        }
      ],
      "stateMutability": "view",
      "type": "function"
    },
    {
      "inputs": [
        {
          "internalType": "address",
          "name": "from",
          "type": "address"
        },
        {
          "internalType": "uint256",
          "name": "amount",
          "type": "uint256"
        }
      ],
      "name": "burn",
      "outputs": [],
      "stateMutability": "nonpayable",
      "type": "function"
    },
    {
      "inputs": [],
      "name": "decimals",
      "outputs": [
        {
          "internalType": "uint8",
          "name": "",
          "type": "uint8"
        }
      ],
      "stateMutability": "view",
      "type": "function"
    },
    {
      "inputs": [
        {
          "internalType": "address",
          "name": "spender",
          "type": "address"
        },
        {
          "internalType": "uint256",
          "name": "subtractedValue",
          "type": "uint256"
        }
      ],
      "name": "decreaseAllowance",
      "outputs": [
        {
          "internalType": "bool",
          "name": "",
          "type": "bool"
        }
      ],
      "stateMutability": "nonpayable",
      "type": "function"
    },
    {
      "inputs": [
        {
          "internalType": "address",
          "name": "spender",
          "type": "address"
        },
        {
          "internalType": "uint256",
          "name": "addedValue",
          "type": "uint256"
        }
      ],
      "name": "increaseAllowance",
      "outputs": [
        {
          "internalType": "bool",
          "name": "",
          "type": "bool"
        }
      ],
      "stateMutability": "nonpayable",
      "type": "function"
    },
    {
      "inputs": [
        {
          "internalType": "address",
          "name": "to",
          "type": "address"
        },
        {
          "internalType": "uint256",
          "name": "amount",
          "type": "uint256"
        }
      ],
      "name": "mint",
      "outputs": [],
      "stateMutability": "nonpayable",
      "type": "function"
    },
    {
      "inputs": [],
      "name": "name",
      "outputs": [
        {
          "internalType": "string",
          "name": "",
          "type": "string"
        }
      ],
      "stateMutability": "view",
      "type": "function"
    },
    {
      "inputs": [],
      "name": "owner",
      "outputs": [
        {
          "internalType": "address",
          "name": "",
          "type": "address"
        }
      ],
      "stateMutability": "view",
      "type": "function"
    },
    {
      "inputs": [],
      "name": "renounceOwnership",
      "outputs": [],
      "stateMutability": "nonpayable",
      "type": "function"
    },
    {
      "inputs": [],
      "name": "symbol",
      "outputs": [
        {
          "internalType": "string",
          "name": "",
          "type": "string"
        }
      ],
      "stateMutability": "view",
      "type": "function"
    },
    {
      "inputs": [],
      "name": "totalSupply",
      "outputs": [
        {
          "internalType": "uint256",
          "name": "",
          "type": "uint256"
        }
      ],
      "stateMutability": "view",
      "type": "function"
    },
    {
      "inputs": [
        {
          "internalType": "address",
          "name": "to",
          "type": "address"
        },
        {
          "internalType": "uint256",
          "name": "amount",
          "type": "uint256"
        }
      ],
      "name": "transfer",
      "outputs": [
        {
          "internalType": "bool",
          "name": "",
          "type": "bool"
        }
      ],
      "stateMutability": "nonpayable",
      "type": "function"
    },
    {
      "inputs": [
        {
          "internalType": "address",
          "name": "from",
          "type": "address"
        },
        {
          "internalType": "address",
          "name": "to",
          "type": "address"
        },
        {
          "internalType": "uint256",
          "name": "amount",
          "type": "uint256"
        }
      ],
      "name": "transferFrom",
      "outputs": [
        {
          "internalType": "bool",
          "name": "",
          "type": "bool"
        }
      ],
      "stateMutability": "nonpayable",
      "type": "function"
    },
    {
      "inputs": [
        {
          "internalType": "address",
          "name": "newOwner",
          "type": "address"
        }
      ],
      "name": "transferOwnership",
      "outputs": [],
      "stateMutability": "nonpayable",
      "type": "function"
    }
  ],
  "transactionHash": "0x72f63af4ae66db91a10c7161d17ec125ba805a273e5f2e548383ea8588e65d6f",
  "args": [],
  "numDeployments": 1,
  "solcInputHash": "e7399c10291e2096d7803601e5179a69",
  "bytecode": "0x60806040523480156200001157600080fd5b506040518060400160405280600b81526020017f53696d706c65546f6b656e0000000000000000000000000000000000000000008152506040518060400160405280600581526020017f53494d504c00000000000000000000000000000000000000000000000000000081525081600390805190602001906200009692919062000339565b508060049080519060200190620000af92919062000339565b505050620000d2620000c6620000f360201b60201c565b620000fb60201b60201c565b620000ed33683635c9adc5dea00000620001c160201b60201c565b62000595565b600033905090565b6000600560009054906101000a900473ffffffffffffffffffffffffffffffffffffffff16905081600560006101000a81548173ffffffffffffffffffffffffffffffffffffffff021916908373ffffffffffffffffffffffffffffffffffffffff1602179055508173ffffffffffffffffffffffffffffffffffffffff168173ffffffffffffffffffffffffffffffffffffffff167f8be0079c531659141344cd1fd0a4f28419497f9722a3daafe3b4186f6b6457e060405160405180910390a35050565b600073ffffffffffffffffffffffffffffffffffffffff168273ffffffffffffffffffffffffffffffffffffffff16141562000234576040517f08c379a00000000000000000000000000000000000000000000000000000000081526004016200022b9062000421565b60405180910390fd5b62000248600083836200032f60201b60201c565b80600260008282546200025c919062000471565b92505081905550806000808473ffffffffffffffffffffffffffffffffffffffff1673ffffffffffffffffffffffffffffffffffffffff168152602001908152602001600020600082825401925050819055508173ffffffffffffffffffffffffffffffffffffffff16600073ffffffffffffffffffffffffffffffffffffffff167fddf252ad1be2c89b69c2b068fc378daa952ba7f163c4a11628f55a4df523b3ef836040516200030f919062000443565b60405180910390a36200032b600083836200033460201b60201c565b5050565b505050565b505050565b8280546200034790620004d8565b90600052602060002090601f0160209004810192826200036b5760008555620003b7565b82601f106200038657805160ff1916838001178555620003b7565b82800160010185558215620003b7579182015b82811115620003b657825182559160200191906001019062000399565b5b509050620003c69190620003ca565b5090565b5b80821115620003e5576000816000905550600101620003cb565b5090565b6000620003f8601f8362000460565b915062000405826200056c565b602082019050919050565b6200041b81620004ce565b82525050565b600060208201905081810360008301526200043c81620003e9565b9050919050565b60006020820190506200045a600083018462000410565b92915050565b600082825260208201905092915050565b60006200047e82620004ce565b91506200048b83620004ce565b9250827fffffffffffffffffffffffffffffffffffffffffffffffffffffffffffffffff03821115620004c357620004c26200050e565b5b828201905092915050565b6000819050919050565b60006002820490506001821680620004f157607f821691505b602082108114156200050857620005076200053d565b5b50919050565b7f4e487b7100000000000000000000000000000000000000000000000000000000600052601160045260246000fd5b7f4e487b7100000000000000000000000000000000000000000000000000000000600052602260045260246000fd5b7f45524332303a206d696e7420746f20746865207a65726f206164647265737300600082015250565b611b4180620005a56000396000f3fe608060405234801561001057600080fd5b50600436106101005760003560e01c8063715018a611610097578063a457c2d711610066578063a457c2d71461029d578063a9059cbb146102cd578063dd62ed3e146102fd578063f2fde38b1461032d57610100565b8063715018a61461023b5780638da5cb5b1461024557806395d89b41146102635780639dc29fac1461028157610100565b8063313ce567116100d3578063313ce567146101a157806339509351146101bf57806340c10f19146101ef57806370a082311461020b57610100565b806306fdde0314610105578063095ea7b31461012357806318160ddd1461015357806323b872dd14610171575b600080fd5b61010d610349565b60405161011a9190611423565b60405180910390f35b61013d60048036038101906101389190611194565b6103db565b60405161014a9190611408565b60405180910390f35b61015b6103fe565b60405161016891906115c5565b60405180910390f35b61018b60048036038101906101869190611141565b610408565b6040516101989190611408565b60405180910390f35b6101a9610437565b6040516101b691906115e0565b60405180910390f35b6101d960048036038101906101d49190611194565b610440565b6040516101e69190611408565b60405180910390f35b61020960048036038101906102049190611194565b610477565b005b610225600480360381019061022091906110d4565b61048d565b60405161023291906115c5565b60405180910390f35b6102436104d5565b005b61024d6104e9565b60405161025a91906113ed565b60405180910390f35b61026b610513565b6040516102789190611423565b60405180910390f35b61029b60048036038101906102969190611194565b6105a5565b005b6102b760048036038101906102b29190611194565b6105bb565b6040516102c49190611408565b60405180910390f35b6102e760048036038101906102e29190611194565b610632565b6040516102f49190611408565b60405180910390f35b61031760048036038101906103129190611101565b610655565b60405161032491906115c5565b60405180910390f35b610347600480360381019061034291906110d4565b6106dc565b005b606060038054610358906116f5565b80601f0160208091040260200160405190810160405280929190818152602001828054610384906116f5565b80156103d15780601f106103a6576101008083540402835291602001916103d1565b820191906000526020600020905b8154815290600101906020018083116103b457829003601f168201915b5050505050905090565b6000806103e6610760565b90506103f3818585610768565b600191505092915050565b6000600254905090565b600080610413610760565b9050610420858285610933565b61042b8585856109bf565b60019150509392505050565b60006012905090565b60008061044b610760565b905061046c81858561045d8589610655565b6104679190611617565b610768565b600191505092915050565b61047f610c37565b6104898282610cb5565b5050565b60008060008373ffffffffffffffffffffffffffffffffffffffff1673ffffffffffffffffffffffffffffffffffffffff168152602001908152602001600020549050919050565b6104dd610c37565b6104e76000610e0c565b565b6000600560009054906101000a900473ffffffffffffffffffffffffffffffffffffffff16905090565b606060048054610522906116f5565b80601f016020809104026020016040519081016040528092919081815260200182805461054e906116f5565b801561059b5780601f106105705761010080835404028352916020019161059b565b820191906000526020600020905b81548152906001019060200180831161057e57829003601f168201915b5050505050905090565b6105ad610c37565b6105b78282610ed2565b5050565b6000806105c6610760565b905060006105d48286610655565b905083811015610619576040517f08c379a000000000000000000000000000000000000000000000000000000000815260040161061090611585565b60405180910390fd5b6106268286868403610768565b60019250505092915050565b60008061063d610760565b905061064a8185856109bf565b600191505092915050565b6000600160008473ffffffffffffffffffffffffffffffffffffffff1673ffffffffffffffffffffffffffffffffffffffff16815260200190815260200160002060008373ffffffffffffffffffffffffffffffffffffffff1673ffffffffffffffffffffffffffffffffffffffff16815260200190815260200160002054905092915050565b6106e4610c37565b600073ffffffffffffffffffffffffffffffffffffffff168173ffffffffffffffffffffffffffffffffffffffff161415610754576040517f08c379a000000000000000000000000000000000000000000000000000000000815260040161074b90611485565b60405180910390fd5b61075d81610e0c565b50565b600033905090565b600073ffffffffffffffffffffffffffffffffffffffff168373ffffffffffffffffffffffffffffffffffffffff1614156107d8576040517f08c379a00000000000000000000000000000000000000000000000000000000081526004016107cf90611565565b60405180910390fd5b600073ffffffffffffffffffffffffffffffffffffffff168273ffffffffffffffffffffffffffffffffffffffff161415610848576040517f08c379a000000000000000000000000000000000000000000000000000000000815260040161083f906114a5565b60405180910390fd5b80600160008573ffffffffffffffffffffffffffffffffffffffff1673ffffffffffffffffffffffffffffffffffffffff16815260200190815260200160002060008473ffffffffffffffffffffffffffffffffffffffff1673ffffffffffffffffffffffffffffffffffffffff168152602001908152602001600020819055508173ffffffffffffffffffffffffffffffffffffffff168373ffffffffffffffffffffffffffffffffffffffff167f8c5be1e5ebec7d5bd14f71427d1e84f3dd0314c0f7b2291e5b200ac8c7c3b9258360405161092691906115c5565b60405180910390a3505050565b600061093f8484610655565b90507fffffffffffffffffffffffffffffffffffffffffffffffffffffffffffffffff81146109b957818110156109ab576040517f08c379a00000000000000000000000000000000000000000000000000000000081526004016109a2906114c5565b60405180910390fd5b6109b88484848403610768565b5b50505050565b600073ffffffffffffffffffffffffffffffffffffffff168373ffffffffffffffffffffffffffffffffffffffff161415610a2f576040517f08c379a0000000000000000000000000000000000000000000000000000000008152600401610a2690611545565b60405180910390fd5b600073ffffffffffffffffffffffffffffffffffffffff168273ffffffffffffffffffffffffffffffffffffffff161415610a9f576040517f08c379a0000000000000000000000000000000000000000000000000000000008152600401610a9690611445565b60405180910390fd5b610aaa8383836110a0565b60008060008573ffffffffffffffffffffffffffffffffffffffff1673ffffffffffffffffffffffffffffffffffffffff16815260200190815260200160002054905081811015610b30576040517f08c379a0000000000000000000000000000000000000000000000000000000008152600401610b27906114e5565b60405180910390fd5b8181036000808673ffffffffffffffffffffffffffffffffffffffff1673ffffffffffffffffffffffffffffffffffffffff16815260200190815260200160002081905550816000808573ffffffffffffffffffffffffffffffffffffffff1673ffffffffffffffffffffffffffffffffffffffff168152602001908152602001600020600082825401925050819055508273ffffffffffffffffffffffffffffffffffffffff168473ffffffffffffffffffffffffffffffffffffffff167fddf252ad1be2c89b69c2b068fc378daa952ba7f163c4a11628f55a4df523b3ef84604051610c1e91906115c5565b60405180910390a3610c318484846110a5565b50505050565b610c3f610760565b73ffffffffffffffffffffffffffffffffffffffff16610c5d6104e9565b73ffffffffffffffffffffffffffffffffffffffff1614610cb3576040517f08c379a0000000000000000000000000000000000000000000000000000000008152600401610caa90611505565b60405180910390fd5b565b600073ffffffffffffffffffffffffffffffffffffffff168273ffffffffffffffffffffffffffffffffffffffff161415610d25576040517f08c379a0000000000000000000000000000000000000000000000000000000008152600401610d1c906115a5565b60405180910390fd5b610d31600083836110a0565b8060026000828254610d439190611617565b92505081905550806000808473ffffffffffffffffffffffffffffffffffffffff1673ffffffffffffffffffffffffffffffffffffffff168152602001908152602001600020600082825401925050819055508173ffffffffffffffffffffffffffffffffffffffff16600073ffffffffffffffffffffffffffffffffffffffff167fddf252ad1be2c89b69c2b068fc378daa952ba7f163c4a11628f55a4df523b3ef83604051610df491906115c5565b60405180910390a3610e08600083836110a5565b5050565b6000600560009054906101000a900473ffffffffffffffffffffffffffffffffffffffff16905081600560006101000a81548173ffffffffffffffffffffffffffffffffffffffff021916908373ffffffffffffffffffffffffffffffffffffffff1602179055508173ffffffffffffffffffffffffffffffffffffffff168173ffffffffffffffffffffffffffffffffffffffff167f8be0079c531659141344cd1fd0a4f28419497f9722a3daafe3b4186f6b6457e060405160405180910390a35050565b600073ffffffffffffffffffffffffffffffffffffffff168273ffffffffffffffffffffffffffffffffffffffff161415610f42576040517f08c379a0000000000000000000000000000000000000000000000000000000008152600401610f3990611525565b60405180910390fd5b610f4e826000836110a0565b60008060008473ffffffffffffffffffffffffffffffffffffffff1673ffffffffffffffffffffffffffffffffffffffff16815260200190815260200160002054905081811015610fd4576040517f08c379a0000000000000000000000000000000000000000000000000000000008152600401610fcb90611465565b60405180910390fd5b8181036000808573ffffffffffffffffffffffffffffffffffffffff1673ffffffffffffffffffffffffffffffffffffffff1681526020019081526020016000208190555081600260008282540392505081905550600073ffffffffffffffffffffffffffffffffffffffff168373ffffffffffffffffffffffffffffffffffffffff167fddf252ad1be2c89b69c2b068fc378daa952ba7f163c4a11628f55a4df523b3ef8460405161108791906115c5565b60405180910390a361109b836000846110a5565b505050565b505050565b505050565b6000813590506110b981611add565b92915050565b6000813590506110ce81611af4565b92915050565b6000602082840312156110ea576110e9611785565b5b60006110f8848285016110aa565b91505092915050565b6000806040838503121561111857611117611785565b5b6000611126858286016110aa565b9250506020611137858286016110aa565b9150509250929050565b60008060006060848603121561115a57611159611785565b5b6000611168868287016110aa565b9350506020611179868287016110aa565b925050604061118a868287016110bf565b9150509250925092565b600080604083850312156111ab576111aa611785565b5b60006111b9858286016110aa565b92505060206111ca858286016110bf565b9150509250929050565b6111dd8161166d565b82525050565b6111ec8161167f565b82525050565b60006111fd826115fb565b6112078185611606565b93506112178185602086016116c2565b6112208161178a565b840191505092915050565b6000611238602383611606565b91506112438261179b565b604082019050919050565b600061125b602283611606565b9150611266826117ea565b604082019050919050565b600061127e602683611606565b915061128982611839565b604082019050919050565b60006112a1602283611606565b91506112ac82611888565b604082019050919050565b60006112c4601d83611606565b91506112cf826118d7565b602082019050919050565b60006112e7602683611606565b91506112f282611900565b604082019050919050565b600061130a602083611606565b91506113158261194f565b602082019050919050565b600061132d602183611606565b915061133882611978565b604082019050919050565b6000611350602583611606565b915061135b826119c7565b604082019050919050565b6000611373602483611606565b915061137e82611a16565b604082019050919050565b6000611396602583611606565b91506113a182611a65565b604082019050919050565b60006113b9601f83611606565b91506113c482611ab4565b602082019050919050565b6113d8816116ab565b82525050565b6113e7816116b5565b82525050565b600060208201905061140260008301846111d4565b92915050565b600060208201905061141d60008301846111e3565b92915050565b6000602082019050818103600083015261143d81846111f2565b905092915050565b6000602082019050818103600083015261145e8161122b565b9050919050565b6000602082019050818103600083015261147e8161124e565b9050919050565b6000602082019050818103600083015261149e81611271565b9050919050565b600060208201905081810360008301526114be81611294565b9050919050565b600060208201905081810360008301526114de816112b7565b9050919050565b600060208201905081810360008301526114fe816112da565b9050919050565b6000602082019050818103600083015261151e816112fd565b9050919050565b6000602082019050818103600083015261153e81611320565b9050919050565b6000602082019050818103600083015261155e81611343565b9050919050565b6000602082019050818103600083015261157e81611366565b9050919050565b6000602082019050818103600083015261159e81611389565b9050919050565b600060208201905081810360008301526115be816113ac565b9050919050565b60006020820190506115da60008301846113cf565b92915050565b60006020820190506115f560008301846113de565b92915050565b600081519050919050565b600082825260208201905092915050565b6000611622826116ab565b915061162d836116ab565b9250827fffffffffffffffffffffffffffffffffffffffffffffffffffffffffffffffff0382111561166257611661611727565b5b828201905092915050565b60006116788261168b565b9050919050565b60008115159050919050565b600073ffffffffffffffffffffffffffffffffffffffff82169050919050565b6000819050919050565b600060ff82169050919050565b60005b838110156116e05780820151818401526020810190506116c5565b838111156116ef576000848401525b50505050565b6000600282049050600182168061170d57607f821691505b6020821081141561172157611720611756565b5b50919050565b7f4e487b7100000000000000000000000000000000000000000000000000000000600052601160045260246000fd5b7f4e487b7100000000000000000000000000000000000000000000000000000000600052602260045260246000fd5b600080fd5b6000601f19601f8301169050919050565b7f45524332303a207472616e7366657220746f20746865207a65726f206164647260008201527f6573730000000000000000000000000000000000000000000000000000000000602082015250565b7f45524332303a206275726e20616d6f756e7420657863656564732062616c616e60008201527f6365000000000000000000000000000000000000000000000000000000000000602082015250565b7f4f776e61626c653a206e6577206f776e657220697320746865207a65726f206160008201527f6464726573730000000000000000000000000000000000000000000000000000602082015250565b7f45524332303a20617070726f766520746f20746865207a65726f20616464726560008201527f7373000000000000000000000000000000000000000000000000000000000000602082015250565b7f45524332303a20696e73756666696369656e7420616c6c6f77616e6365000000600082015250565b7f45524332303a207472616e7366657220616d6f756e742065786365656473206260008201527f616c616e63650000000000000000000000000000000000000000000000000000602082015250565b7f4f776e61626c653a2063616c6c6572206973206e6f7420746865206f776e6572600082015250565b7f45524332303a206275726e2066726f6d20746865207a65726f2061646472657360008201527f7300000000000000000000000000000000000000000000000000000000000000602082015250565b7f45524332303a207472616e736665722066726f6d20746865207a65726f20616460008201527f6472657373000000000000000000000000000000000000000000000000000000602082015250565b7f45524332303a20617070726f76652066726f6d20746865207a65726f2061646460008201527f7265737300000000000000000000000000000000000000000000000000000000602082015250565b7f45524332303a2064656372656173656420616c6c6f77616e63652062656c6f7760008201527f207a65726f000000000000000000000000000000000000000000000000000000602082015250565b7f45524332303a206d696e7420746f20746865207a65726f206164647265737300600082015250565b611ae68161166d565b8114611af157600080fd5b50565b611afd816116ab565b8114611b0857600080fd5b5056fea2646970667358221220263ec36a47e4e5c994ea068397d3826ade86d191280e89e30dedf88940fa74ee64736f6c63430008070033",
  "devdoc": {
    "kind": "dev",
    "methods": {
      "allowance(address,address)": {
        "details": "See {IERC20-allowance}."
      },
      "approve(address,uint256)": {
        "details": "See {IERC20-approve}. NOTE: If `amount` is the maximum `uint256`, the allowance is not updated on `transferFrom`. This is semantically equivalent to an infinite approval. Requirements: - `spender` cannot be the zero address."
      },
      "balanceOf(address)": {
        "details": "See {IERC20-balanceOf}."
      },
      "decimals()": {
        "details": "Returns the number of decimals used to get its user representation. For example, if `decimals` equals `2`, a balance of `505` tokens should be displayed to a user as `5.05` (`505 / 10 ** 2`). Tokens usually opt for a value of 18, imitating the relationship between Ether and Wei. This is the default value returned by this function, unless it's overridden. NOTE: This information is only used for _display_ purposes: it in no way affects any of the arithmetic of the contract, including {IERC20-balanceOf} and {IERC20-transfer}."
      },
      "decreaseAllowance(address,uint256)": {
        "details": "Atomically decreases the allowance granted to `spender` by the caller. This is an alternative to {approve} that can be used as a mitigation for problems described in {IERC20-approve}. Emits an {Approval} event indicating the updated allowance. Requirements: - `spender` cannot be the zero address. - `spender` must have allowance for the caller of at least `subtractedValue`."
      },
      "increaseAllowance(address,uint256)": {
        "details": "Atomically increases the allowance granted to `spender` by the caller. This is an alternative to {approve} that can be used as a mitigation for problems described in {IERC20-approve}. Emits an {Approval} event indicating the updated allowance. Requirements: - `spender` cannot be the zero address."
      },
      "name()": {
        "details": "Returns the name of the token."
      },
      "owner()": {
        "details": "Returns the address of the current owner."
      },
      "renounceOwnership()": {
        "details": "Leaves the contract without owner. It will not be possible to call `onlyOwner` functions. Can only be called by the current owner. NOTE: Renouncing ownership will leave the contract without an owner, thereby disabling any functionality that is only available to the owner."
      },
      "symbol()": {
        "details": "Returns the symbol of the token, usually a shorter version of the name."
      },
      "totalSupply()": {
        "details": "See {IERC20-totalSupply}."
      },
      "transfer(address,uint256)": {
        "details": "See {IERC20-transfer}. Requirements: - `to` cannot be the zero address. - the caller must have a balance of at least `amount`."
      },
      "transferFrom(address,address,uint256)": {
        "details": "See {IERC20-transferFrom}. Emits an {Approval} event indicating the updated allowance. This is not required by the EIP. See the note at the beginning of {ERC20}. NOTE: Does not update the allowance if the current allowance is the maximum `uint256`. Requirements: - `from` and `to` cannot be the zero address. - `from` must have a balance of at least `amount`. - the caller must have allowance for ``from``'s tokens of at least `amount`."
      },
      "transferOwnership(address)": {
        "details": "Transfers ownership of the contract to a new account (`newOwner`). Can only be called by the current owner."
      }
    },
    "version": 1
  },
  "userdoc": {
    "kind": "user",
    "methods": {},
    "version": 1
  },
  "storageLayout": {
    "storage": [
      {
        "astId": 131,
        "contract": "contracts/SimpleToken.sol:SimpleToken",
        "label": "_balances",
        "offset": 0,
        "slot": "0",
        "type": "t_mapping(t_address,t_uint256)"
      },
      {
        "astId": 137,
        "contract": "contracts/SimpleToken.sol:SimpleToken",
        "label": "_allowances",
        "offset": 0,
        "slot": "1",
        "type": "t_mapping(t_address,t_mapping(t_address,t_uint256))"
      },
      {
        "astId": 139,
        "contract": "contracts/SimpleToken.sol:SimpleToken",
        "label": "_totalSupply",
        "offset": 0,
        "slot": "2",
        "type": "t_uint256"
      },
      {
        "astId": 141,
        "contract": "contracts/SimpleToken.sol:SimpleToken",
        "label": "_name",
        "offset": 0,
        "slot": "3",
        "type": "t_string_storage"
      },
      {
        "astId": 143,
        "contract": "contracts/SimpleToken.sol:SimpleToken",
        "label": "_symbol",
        "offset": 0,
        "slot": "4",
        "type": "t_string_storage"
      },
      {
        "astId": 7,
        "contract": "contracts/SimpleToken.sol:SimpleToken",
        "label": "_owner",
        "offset": 0,
        "slot": "5",
        "type": "t_address"
      }
    ],
    "types": {
      "t_address": {
        "encoding": "inplace",
        "label": "address",
        "numberOfBytes": "20"
      },
      "t_mapping(t_address,t_mapping(t_address,t_uint256))": {
        "encoding": "mapping",
        "key": "t_address",
        "label": "mapping(address => mapping(address => uint256))",
        "numberOfBytes": "32",
        "value": "t_mapping(t_address,t_uint256)"
      },
      "t_mapping(t_address,t_uint256)": {
        "encoding": "mapping",
        "key": "t_address",
        "label": "mapping(address => uint256)",
        "numberOfBytes": "32",
        "value": "t_uint256"
      },
      "t_string_storage": {
        "encoding": "bytes",
        "label": "string",
        "numberOfBytes": "32"
      },
      "t_uint256": {
        "encoding": "inplace",
        "label": "uint256",
        "numberOfBytes": "32"
      }
    }
  }
}