{
  "address": "0xe86Bf06c275C51A6286254175575d0Bea8f87fCb",
  "abi": [
    {
      "inputs": [
        {
          "internalType": "address",
          "name": "_assetOneAddress",
          "type": "address"
        },
        {
          "internalType": "address",
          "name": "_assetTwoAddress",
          "type": "address"
        }
      ],
      "stateMutability": "nonpayable",
      "type": "constructor"
    },
    {
      "inputs": [],
      "name": "addressNotCorrect",
      "type": "error"
    },
    {
      "inputs": [],
      "name": "amountTooBig",
      "type": "error"
    },
    {
      "inputs": [],
      "name": "assetNotCorrect",
      "type": "error"
    },
    {
      "inputs": [],
      "name": "initialLiquidityAlreadyProvided",
      "type": "error"
    },
    {
      "inputs": [],
      "name": "needToCallExistingFunction",
      "type": "error"
    },
    {
      "inputs": [],
      "name": "notEnoughGas",
      "type": "error"
    },
    {
      "inputs": [],
      "name": "notEnoughTimePassed",
      "type": "error"
    },
    {
      "inputs": [],
      "name": "notEnoughTokens",
      "type": "error"
    },
    {
      "anonymous": false,
      "inputs": [
        {
          "indexed": true,
          "internalType": "address",
          "name": "_address",
          "type": "address"
        },
        {
          "indexed": false,
          "internalType": "uint256",
          "name": "_assetOneAmount",
          "type": "uint256"
        },
        {
          "indexed": false,
          "internalType": "uint256",
          "name": "_assetTwoAmount",
          "type": "uint256"
        }
      ],
      "name": "liquidityAdded",
      "type": "event"
    },
    {
      "anonymous": false,
      "inputs": [
        {
          "indexed": true,
          "internalType": "address",
          "name": "_address",
          "type": "address"
        },
        {
          "indexed": false,
          "internalType": "uint256",
          "name": "_assetOneAmount",
          "type": "uint256"
        },
        {
          "indexed": false,
          "internalType": "uint256",
          "name": "_assetTwoAmount",
          "type": "uint256"
        }
      ],
      "name": "liquidityRemoved",
      "type": "event"
    },
    {
      "anonymous": false,
      "inputs": [
        {
          "indexed": false,
          "internalType": "address",
          "name": "_asset",
          "type": "address"
        },
        {
          "indexed": false,
          "internalType": "uint256",
          "name": "price",
          "type": "uint256"
        }
      ],
      "name": "priceChanged",
      "type": "event"
    },
    {
      "anonymous": false,
      "inputs": [
        {
          "indexed": true,
          "internalType": "address",
          "name": "_address",
          "type": "address"
        },
        {
          "indexed": false,
          "internalType": "uint256",
          "name": "_amount",
          "type": "uint256"
        }
      ],
      "name": "yieldFarmed",
      "type": "event"
    },
    {
      "stateMutability": "payable",
      "type": "fallback"
    },
    {
      "inputs": [
        {
          "internalType": "uint256",
          "name": "_assetOneAmount",
          "type": "uint256"
        },
        {
          "internalType": "uint256",
          "name": "_assetTwoAmount",
          "type": "uint256"
        }
      ],
      "name": "addInitialLiquidity",
      "outputs": [],
      "stateMutability": "nonpayable",
      "type": "function"
    },
    {
      "inputs": [
        {
          "internalType": "address",
          "name": "_asset",
          "type": "address"
        },
        {
          "internalType": "address",
          "name": "_secondAsset",
          "type": "address"
        },
        {
          "internalType": "uint256",
          "name": "_amount",
          "type": "uint256"
        }
      ],
      "name": "addLiquidity",
      "outputs": [],
      "stateMutability": "nonpayable",
      "type": "function"
    },
    {
      "inputs": [],
      "name": "addressBalance",
      "outputs": [
        {
          "internalType": "uint256",
          "name": "",
          "type": "uint256"
        }
      ],
      "stateMutability": "view",
      "type": "function"
    },
    {
      "inputs": [
        {
          "internalType": "address",
          "name": "_asset",
          "type": "address"
        },
        {
          "internalType": "uint256",
          "name": "_amount",
          "type": "uint256"
        }
      ],
      "name": "amountOfOppositeTokenNeeded",
      "outputs": [
        {
          "internalType": "uint256",
          "name": "",
          "type": "uint256"
        }
      ],
      "stateMutability": "view",
      "type": "function"
    },
    {
      "inputs": [],
      "name": "assetOneAddress",
      "outputs": [
        {
          "internalType": "address",
          "name": "",
          "type": "address"
        }
      ],
      "stateMutability": "view",
      "type": "function"
    },
    {
      "inputs": [],
      "name": "assetOnePrice",
      "outputs": [
        {
          "internalType": "uint256",
          "name": "",
          "type": "uint256"
        }
      ],
      "stateMutability": "view",
      "type": "function"
    },
    {
      "inputs": [],
      "name": "assetTwoAddress",
      "outputs": [
        {
          "internalType": "address",
          "name": "",
          "type": "address"
        }
      ],
      "stateMutability": "view",
      "type": "function"
    },
    {
      "inputs": [],
      "name": "assetTwoPrice",
      "outputs": [
        {
          "internalType": "uint256",
          "name": "",
          "type": "uint256"
        }
      ],
      "stateMutability": "view",
      "type": "function"
    },
    {
      "inputs": [
        {
          "internalType": "uint256",
          "name": "newSwapFee",
          "type": "uint256"
        }
      ],
      "name": "changeSwapFee",
      "outputs": [],
      "stateMutability": "nonpayable",
      "type": "function"
    },
    {
      "inputs": [
        {
          "internalType": "address",
          "name": "_address",
          "type": "address"
        }
      ],
      "name": "getAssetBalace",
      "outputs": [
        {
          "internalType": "uint256",
          "name": "",
          "type": "uint256"
        }
      ],
      "stateMutability": "view",
      "type": "function"
    },
    {
      "inputs": [],
      "name": "getAssetOne",
      "outputs": [
        {
          "internalType": "uint256",
          "name": "",
          "type": "uint256"
        }
      ],
      "stateMutability": "view",
      "type": "function"
    },
    {
      "inputs": [],
      "name": "getAssetTwo",
      "outputs": [
        {
          "internalType": "uint256",
          "name": "",
          "type": "uint256"
        }
      ],
      "stateMutability": "view",
      "type": "function"
    },
    {
      "inputs": [],
      "name": "getLiquidity",
      "outputs": [
        {
          "internalType": "uint256",
          "name": "",
          "type": "uint256"
        }
      ],
      "stateMutability": "view",
      "type": "function"
    },
    {
      "inputs": [
        {
          "internalType": "address",
          "name": "_address",
          "type": "address"
        }
      ],
      "name": "getLpTokenQuantity",
      "outputs": [
        {
          "internalType": "uint256",
          "name": "",
          "type": "uint256"
        }
      ],
      "stateMutability": "view",
      "type": "function"
    },
    {
      "inputs": [],
      "name": "getSwapFee",
      "outputs": [
        {
          "internalType": "uint256",
          "name": "",
          "type": "uint256"
        }
      ],
      "stateMutability": "view",
      "type": "function"
    },
    {
      "inputs": [
        {
          "internalType": "address",
          "name": "sellingAsset",
          "type": "address"
        },
        {
          "internalType": "uint256",
          "name": "_amount",
          "type": "uint256"
        }
      ],
      "name": "getSwapQuantity",
      "outputs": [
        {
          "internalType": "uint256",
          "name": "",
          "type": "uint256"
        }
      ],
      "stateMutability": "view",
      "type": "function"
    },
    {
      "inputs": [],
      "name": "getYield",
      "outputs": [],
      "stateMutability": "nonpayable",
      "type": "function"
    },
    {
      "inputs": [],
      "name": "initialLiquidity",
      "outputs": [
        {
          "internalType": "uint256",
          "name": "",
          "type": "uint256"
        }
      ],
      "stateMutability": "view",
      "type": "function"
    },
    {
      "inputs": [
        {
          "internalType": "address",
          "name": "",
          "type": "address"
        }
      ],
      "name": "initialLiquidityProvidedTime",
      "outputs": [
        {
          "internalType": "uint256",
          "name": "",
          "type": "uint256"
        }
      ],
      "stateMutability": "view",
      "type": "function"
    },
    {
      "inputs": [],
      "name": "isTime",
      "outputs": [
        {
          "internalType": "bool",
          "name": "",
          "type": "bool"
        }
      ],
      "stateMutability": "view",
      "type": "function"
    },
    {
      "inputs": [],
      "name": "isTimeInitialLiquidity",
      "outputs": [
        {
          "internalType": "bool",
          "name": "",
          "type": "bool"
        }
      ],
      "stateMutability": "view",
      "type": "function"
    },
    {
      "inputs": [
        {
          "internalType": "address",
          "name": "",
          "type": "address"
        }
      ],
      "name": "lastYieldFarmedTime",
      "outputs": [
        {
          "internalType": "uint256",
          "name": "",
          "type": "uint256"
        }
      ],
      "stateMutability": "view",
      "type": "function"
    },
    {
      "inputs": [],
      "name": "liquidity",
      "outputs": [
        {
          "internalType": "uint256",
          "name": "",
          "type": "uint256"
        }
      ],
      "stateMutability": "view",
      "type": "function"
    },
    {
      "inputs": [
        {
          "internalType": "address",
          "name": "",
          "type": "address"
        }
      ],
      "name": "lpTokenQuantity",
      "outputs": [
        {
          "internalType": "uint256",
          "name": "",
          "type": "uint256"
        }
      ],
      "stateMutability": "view",
      "type": "function"
    },
    {
      "inputs": [],
      "name": "owner",
      "outputs": [
        {
          "internalType": "address",
          "name": "",
          "type": "address"
        }
      ],
      "stateMutability": "view",
      "type": "function"
    },
    {
      "inputs": [
        {
          "internalType": "uint256",
          "name": "_amount",
          "type": "uint256"
        }
      ],
      "name": "removeLiquidity",
      "outputs": [],
      "stateMutability": "nonpayable",
      "type": "function"
    },
    {
      "inputs": [
        {
          "internalType": "uint256",
          "name": "_amount",
          "type": "uint256"
        }
      ],
      "name": "sellAssetOne",
      "outputs": [],
      "stateMutability": "payable",
      "type": "function"
    },
    {
      "inputs": [
        {
          "internalType": "uint256",
          "name": "_amount",
          "type": "uint256"
        }
      ],
      "name": "sellAssetTwo",
      "outputs": [],
      "stateMutability": "payable",
      "type": "function"
    },
    {
      "inputs": [],
      "name": "swapFee",
      "outputs": [
        {
          "internalType": "uint256",
          "name": "",
          "type": "uint256"
        }
      ],
      "stateMutability": "view",
      "type": "function"
    },
    {
      "inputs": [],
      "name": "yield",
      "outputs": [
        {
          "internalType": "uint256",
          "name": "",
          "type": "uint256"
        }
      ],
      "stateMutability": "view",
      "type": "function"
    },
    {
      "inputs": [],
      "name": "yieldAmount",
      "outputs": [
        {
          "internalType": "uint256",
          "name": "",
          "type": "uint256"
        }
      ],
      "stateMutability": "view",
      "type": "function"
    },
    {
      "inputs": [
        {
          "internalType": "address",
          "name": "",
          "type": "address"
        }
      ],
      "name": "yieldTaken",
      "outputs": [
        {
          "internalType": "uint256",
          "name": "",
          "type": "uint256"
        }
      ],
      "stateMutability": "view",
      "type": "function"
    },
    {
      "stateMutability": "payable",
      "type": "receive"
    }
  ],
  "transactionHash": "0x060fbbfe85f03fbb012b0174c7d1ed245683a431ff4195b26e075a4eb4249c1e",
  "args": [
    "0x504739D3569D2cc17A09a58eC33b13db87340BFa",
    "0x82E21d09549d820380e1d41fdD79b795BeF7A0d1"
  ],
  "numDeployments": 2,
  "solcInputHash": "72839c8984e21c3e6564092dbfbc12b0",
  "bytecode": "0x60806040523480156200001157600080fd5b5060405162002dda38038062002dda833981810160405281019062000037919062000120565b816000806101000a81548173ffffffffffffffffffffffffffffffffffffffff021916908373ffffffffffffffffffffffffffffffffffffffff16021790555080600160006101000a81548173ffffffffffffffffffffffffffffffffffffffff021916908373ffffffffffffffffffffffffffffffffffffffff16021790555033600660006101000a81548173ffffffffffffffffffffffffffffffffffffffff021916908373ffffffffffffffffffffffffffffffffffffffff16021790555060016005819055505050620001ba565b6000815190506200011a81620001a0565b92915050565b600080604083850312156200013a57620001396200019b565b5b60006200014a8582860162000109565b92505060206200015d8582860162000109565b9150509250929050565b600062000174826200017b565b9050919050565b600073ffffffffffffffffffffffffffffffffffffffff82169050919050565b600080fd5b620001ab8162000167565b8114620001b757600080fd5b50565b612c1080620001ca6000396000f3fe6080604052600436106101e75760003560e01c80638da5cb5b11610102578063aa03f2ed11610095578063e35ba8ab11610064578063e35ba8ab1461074a578063e4a7672614610775578063f318e5571461079e578063ffebfc8c146107c95761021e565b8063aa03f2ed146106ad578063ce5efee3146106d8578063d4cadf6814610703578063dc1716241461072e5761021e565b8063a04f6639116100d1578063a04f663914610603578063a40f4fa11461062e578063a875480314610657578063a97533b8146106825761021e565b80638da5cb5b1461053557806395cc4c5e146105605780639a61c36a1461059d5780639c8f9f23146105da5761021e565b806340702adc1161017a578063696c613111610149578063696c61311461047b5780637c262871146104a457806381bace7d146104bb5780638477a634146104f85761021e565b806340702adc146103de5780634257dc4c146104095780634d2d757c1461042557806354cf2aeb146104505761021e565b806328593984116101b6578063285939841461030e57806328da1aef146103395780632d4ce66914610376578063405eae91146103b35761021e565b80630910a51014610250578063131a6f011461027b5780631a686502146102a657806324aabb92146102d15761021e565b3661021e576040517fdfaf840900000000000000000000000000000000000000000000000000000000815260040160405180910390fd5b6040517fdfaf840900000000000000000000000000000000000000000000000000000000815260040160405180910390fd5b34801561025c57600080fd5b50610265610806565b6040516102729190612957565b60405180910390f35b34801561028757600080fd5b50610290610810565b60405161029d9190612957565b60405180910390f35b3480156102b257600080fd5b506102bb6108c2565b6040516102c89190612957565b60405180910390f35b3480156102dd57600080fd5b506102f860048036038101906102f391906126ca565b6108c8565b6040516103059190612957565b60405180910390f35b34801561031a57600080fd5b506103236108e0565b6040516103309190612957565b60405180910390f35b34801561034557600080fd5b50610360600480360381019061035b919061274a565b6108e6565b60405161036d9190612957565b60405180910390f35b34801561038257600080fd5b5061039d600480360381019061039891906126ca565b610a55565b6040516103aa9190612957565b60405180910390f35b3480156103bf57600080fd5b506103c8610ae7565b6040516103d5919061291c565b60405180910390f35b3480156103ea57600080fd5b506103f3610b96565b6040516104009190612957565b60405180910390f35b610423600480360381019061041e91906127b7565b610b9c565b005b34801561043157600080fd5b5061043a610fe1565b604051610447919061291c565b60405180910390f35b34801561045c57600080fd5b5061046561104a565b6040516104729190612957565b60405180910390f35b34801561048757600080fd5b506104a2600480360381019061049d91906127b7565b611050565b005b3480156104b057600080fd5b506104b9611068565b005b3480156104c757600080fd5b506104e260048036038101906104dd91906126ca565b6112fd565b6040516104ef9190612957565b60405180910390f35b34801561050457600080fd5b5061051f600480360381019061051a91906126ca565b611406565b60405161052c9190612957565b60405180910390f35b34801561054157600080fd5b5061054a61141e565b60405161055791906128a1565b60405180910390f35b34801561056c57600080fd5b506105876004803603810190610582919061274a565b611444565b6040516105949190612957565b60405180910390f35b3480156105a957600080fd5b506105c460048036038101906105bf91906126ca565b61152d565b6040516105d19190612957565b60405180910390f35b3480156105e657600080fd5b5061060160048036038101906105fc91906127b7565b611545565b005b34801561060f57600080fd5b50610618611af1565b6040516106259190612957565b60405180910390f35b34801561063a57600080fd5b5061065560048036038101906106509190612811565b611afb565b005b34801561066357600080fd5b5061066c611e00565b60405161067991906128a1565b60405180910390f35b34801561068e57600080fd5b50610697611e26565b6040516106a49190612957565b60405180910390f35b3480156106b957600080fd5b506106c2611e5a565b6040516106cf9190612957565b60405180910390f35b3480156106e457600080fd5b506106ed611f0b565b6040516106fa91906128a1565b60405180910390f35b34801561070f57600080fd5b50610718611f2f565b6040516107259190612957565b60405180910390f35b610748600480360381019061074391906127b7565b611f39565b005b34801561075657600080fd5b5061075f61237e565b60405161076c9190612957565b60405180910390f35b34801561078157600080fd5b5061079c600480360381019061079791906126f7565b6123b2565b005b3480156107aa57600080fd5b506107b3612656565b6040516107c09190612957565b60405180910390f35b3480156107d557600080fd5b506107f060048036038101906107eb91906126ca565b61265e565b6040516107fd9190612957565b60405180910390f35b6000600354905090565b6000600160009054906101000a900473ffffffffffffffffffffffffffffffffffffffff1673ffffffffffffffffffffffffffffffffffffffff166370a08231306040518263ffffffff1660e01b815260040161086d91906128a1565b60206040518083038186803b15801561088557600080fd5b505afa158015610899573d6000803e3d6000fd5b505050506040513d601f19601f820116820180604052508101906108bd91906127e4565b905090565b60035481565b60076020528060005260406000206000915090505481565b60045481565b60008060009054906101000a900473ffffffffffffffffffffffffffffffffffffffff1673ffffffffffffffffffffffffffffffffffffffff168373ffffffffffffffffffffffffffffffffffffffff16141561098257600082610948611e5a565b61095291906129ac565b90506000816003546109649190612a02565b90508061096f610810565b6109799190612a8d565b92505050610a4f565b600160009054906101000a900473ffffffffffffffffffffffffffffffffffffffff1673ffffffffffffffffffffffffffffffffffffffff168373ffffffffffffffffffffffffffffffffffffffff161415610a1d576000826109e3610810565b6109ed91906129ac565b90506000816003546109ff9190612a02565b905080610a0a611e5a565b610a149190612a8d565b92505050610a4f565b6040517fd526485500000000000000000000000000000000000000000000000000000000815260040160405180910390fd5b92915050565b60008173ffffffffffffffffffffffffffffffffffffffff166370a08231306040518263ffffffff1660e01b8152600401610a9091906128a1565b60206040518083038186803b158015610aa857600080fd5b505afa158015610abc573d6000803e3d6000fd5b505050506040513d601f19601f82011682018060405250810190610ae091906127e4565b9050919050565b6000600960003373ffffffffffffffffffffffffffffffffffffffff1673ffffffffffffffffffffffffffffffffffffffff1681526020019081526020016000205060004290508062015180600960003373ffffffffffffffffffffffffffffffffffffffff1673ffffffffffffffffffffffffffffffffffffffff16815260200190815260200160002054610b7d91906129ac565b1015610b8d576001915050610b93565b60009150505b90565b60025481565b600660149054906101000a900460ff1615610bec576040517f08c379a0000000000000000000000000000000000000000000000000000000008152600401610be390612937565b60405180910390fd5b6001600660146101000a81548160ff021916908315150217905550610c0f611e5a565b8110610c8e573373ffffffffffffffffffffffffffffffffffffffff166108fc349081150290604051600060405180830381858888f19350505050158015610c5b573d6000803e3d6000fd5b506040517fe45bfdc700000000000000000000000000000000000000000000000000000000815260040160405180910390fd5b6000606460055483610ca09190612a33565b610caa9190612a02565b905080341015610ce6576040517fb08ede0900000000000000000000000000000000000000000000000000000000815260040160405180910390fd5b8060046000828254610cf891906129ac565b9250508190555060008134610d0d9190612a8d565b90506000610d19610810565b9050600084610d26611e5a565b610d3091906129ac565b9050600081600354610d429190612a02565b905060008184610d529190612a8d565b905060008054906101000a900473ffffffffffffffffffffffffffffffffffffffff1673ffffffffffffffffffffffffffffffffffffffff166323b872dd33308a6040518463ffffffff1660e01b8152600401610db1939291906128bc565b602060405180830381600087803b158015610dcb57600080fd5b505af1158015610ddf573d6000803e3d6000fd5b505050506040513d601f19601f82011682018060405250810190610e03919061278a565b50600160009054906101000a900473ffffffffffffffffffffffffffffffffffffffff1673ffffffffffffffffffffffffffffffffffffffff1663a9059cbb33836040518363ffffffff1660e01b8152600401610e619291906128f3565b602060405180830381600087803b158015610e7b57600080fd5b505af1158015610e8f573d6000803e3d6000fd5b505050506040513d601f19601f82011682018060405250810190610eb3919061278a565b503373ffffffffffffffffffffffffffffffffffffffff166108fc869081150290604051600060405180830381858888f19350505050158015610efa573d6000803e3d6000fd5b507f6f32bb515641ec539b66bf327d21765de8c4200f94d348cee1dc835bb7532ab160008054906101000a900473ffffffffffffffffffffffffffffffffffffffff16610f45611e26565b604051610f539291906128f3565b60405180910390a17f6f32bb515641ec539b66bf327d21765de8c4200f94d348cee1dc835bb7532ab1600160009054906101000a900473ffffffffffffffffffffffffffffffffffffffff16610fa761237e565b604051610fb59291906128f3565b60405180910390a15050505050506000600660146101000a81548160ff02191690831515021790555050565b60006301e13380600a60003373ffffffffffffffffffffffffffffffffffffffff1673ffffffffffffffffffffffffffffffffffffffff1681526020019081526020016000205461103291906129ac565b4211156110425760019050611047565b600090505b90565b60055481565b600660009054906101000a9050508060058190555050565b60001515611074610ae7565b151514156110ae576040517ffdbfe33900000000000000000000000000000000000000000000000000000000815260040160405180910390fd5b42600960003373ffffffffffffffffffffffffffffffffffffffff1673ffffffffffffffffffffffffffffffffffffffff168152602001908152602001600020819055506000600860003373ffffffffffffffffffffffffffffffffffffffff1673ffffffffffffffffffffffffffffffffffffffff16815260200190815260200160002054905060006003546064600760003373ffffffffffffffffffffffffffffffffffffffff1673ffffffffffffffffffffffffffffffffffffffff168152602001908152602001600020546111879190612a33565b6111919190612a02565b90506000606482836064866111a69190612a33565b6111b09190612a02565b6004546111bd9190612a8d565b6111c79190612a33565b6111d19190612a02565b90504781111561120d576040517fbf0ebd8400000000000000000000000000000000000000000000000000000000815260040160405180910390fd5b80600860003373ffffffffffffffffffffffffffffffffffffffff1673ffffffffffffffffffffffffffffffffffffffff168152602001908152602001600020600082825461125c91906129ac565b925050819055503373ffffffffffffffffffffffffffffffffffffffff166108fc829081150290604051600060405180830381858888f193505050501580156112a9573d6000803e3d6000fd5b503373ffffffffffffffffffffffffffffffffffffffff167fbf630ce062dbeaeb6c23a21390208b25de2ac16fb8502eab6054a70d9e34b8ec826040516112f09190612957565b60405180910390a2505050565b6000600660009054906101000a900473ffffffffffffffffffffffffffffffffffffffff1673ffffffffffffffffffffffffffffffffffffffff163373ffffffffffffffffffffffffffffffffffffffff161415801561138857503373ffffffffffffffffffffffffffffffffffffffff168273ffffffffffffffffffffffffffffffffffffffff16145b156113bf576040517f2ffae41300000000000000000000000000000000000000000000000000000000815260040160405180910390fd5b600760008373ffffffffffffffffffffffffffffffffffffffff1673ffffffffffffffffffffffffffffffffffffffff168152602001908152602001600020549050919050565b600a6020528060005260406000206000915090505481565b600660009054906101000a900473ffffffffffffffffffffffffffffffffffffffff1681565b60008060008054906101000a900473ffffffffffffffffffffffffffffffffffffffff1673ffffffffffffffffffffffffffffffffffffffff168473ffffffffffffffffffffffffffffffffffffffff1614156114cf576114a3611e5a565b670de0b6b3a76400006114b4610810565b6114be9190612a33565b6114c89190612a02565b90506114ff565b6114d7610810565b670de0b6b3a76400006114e8611e5a565b6114f29190612a33565b6114fc9190612a02565b90505b6000670de0b6b3a764000082856115169190612a33565b6115209190612a02565b9050809250505092915050565b60086020528060005260406000206000915090505481565b600660149054906101000a900460ff1615611595576040517f08c379a000000000000000000000000000000000000000000000000000000000815260040161158c90612937565b60405180910390fd5b6001600660146101000a81548160ff0219169083151502179055506000600760003373ffffffffffffffffffffffffffffffffffffffff1673ffffffffffffffffffffffffffffffffffffffff1681526020019081526020016000205490506000600354670de0b6b3a76400008361160d9190612a33565b6116179190612a02565b90506000606484836116299190612a33565b6116339190612a02565b90506000670de0b6b3a7640000611648611e5a565b836116539190612a33565b61165d9190612a02565b90506000670de0b6b3a7640000611672610810565b8461167d9190612a33565b6116879190612a02565b9050600660009054906101000a900473ffffffffffffffffffffffffffffffffffffffff1673ffffffffffffffffffffffffffffffffffffffff163373ffffffffffffffffffffffffffffffffffffffff161480156116f15750600015156116ed610fe1565b1515145b8015611753575060025481836117079190612a33565b600760003373ffffffffffffffffffffffffffffffffffffffff1673ffffffffffffffffffffffffffffffffffffffff168152602001908152602001600020546117519190612a8d565b105b1561178a576040517fbf0ebd8400000000000000000000000000000000000000000000000000000000815260040160405180910390fd5b8160008054906101000a900473ffffffffffffffffffffffffffffffffffffffff1673ffffffffffffffffffffffffffffffffffffffff166370a08231306040518263ffffffff1660e01b81526004016117e491906128a1565b60206040518083038186803b1580156117fc57600080fd5b505afa158015611810573d6000803e3d6000fd5b505050506040513d601f19601f8201168201806040525081019061183491906127e4565b10806118e9575080600160009054906101000a900473ffffffffffffffffffffffffffffffffffffffff1673ffffffffffffffffffffffffffffffffffffffff166370a08231306040518263ffffffff1660e01b815260040161189791906128a1565b60206040518083038186803b1580156118af57600080fd5b505afa1580156118c3573d6000803e3d6000fd5b505050506040513d601f19601f820116820180604052508101906118e791906127e4565b105b15611920576040517fbf0ebd8400000000000000000000000000000000000000000000000000000000815260040160405180910390fd5b60008054906101000a900473ffffffffffffffffffffffffffffffffffffffff1673ffffffffffffffffffffffffffffffffffffffff1663a9059cbb33846040518363ffffffff1660e01b815260040161197b9291906128f3565b602060405180830381600087803b15801561199557600080fd5b505af11580156119a9573d6000803e3d6000fd5b505050506040513d601f19601f820116820180604052508101906119cd919061278a565b50600160009054906101000a900473ffffffffffffffffffffffffffffffffffffffff1673ffffffffffffffffffffffffffffffffffffffff1663a9059cbb33836040518363ffffffff1660e01b8152600401611a2b9291906128f3565b602060405180830381600087803b158015611a4557600080fd5b505af1158015611a59573d6000803e3d6000fd5b505050506040513d601f19601f82011682018060405250810190611a7d919061278a565b503373ffffffffffffffffffffffffffffffffffffffff167fbad053f5b243c76f17611a28d4554167bd09e3491be13032dd4af620e8e228728383604051611ac6929190612972565b60405180910390a250505050506000600660146101000a81548160ff02191690831515021790555050565b6000600454905090565b600660009054906101000a9050506000600a6000600660009054906101000a900473ffffffffffffffffffffffffffffffffffffffff1673ffffffffffffffffffffffffffffffffffffffff1673ffffffffffffffffffffffffffffffffffffffff168152602001908152602001600020541115611ba5576040517f17ebf42200000000000000000000000000000000000000000000000000000000815260040160405180910390fd5b42600a60003373ffffffffffffffffffffffffffffffffffffffff1673ffffffffffffffffffffffffffffffffffffffff1681526020019081526020016000208190555060008054906101000a900473ffffffffffffffffffffffffffffffffffffffff1673ffffffffffffffffffffffffffffffffffffffff166323b872dd3330856040518463ffffffff1660e01b8152600401611c46939291906128bc565b602060405180830381600087803b158015611c6057600080fd5b505af1158015611c74573d6000803e3d6000fd5b505050506040513d601f19601f82011682018060405250810190611c98919061278a565b50600160009054906101000a900473ffffffffffffffffffffffffffffffffffffffff1673ffffffffffffffffffffffffffffffffffffffff166323b872dd3330846040518463ffffffff1660e01b8152600401611cf8939291906128bc565b602060405180830381600087803b158015611d1257600080fd5b505af1158015611d26573d6000803e3d6000fd5b505050506040513d601f19601f82011682018060405250810190611d4a919061278a565b508082611d579190612a33565b600281905550600254600381905550600254600760003373ffffffffffffffffffffffffffffffffffffffff1673ffffffffffffffffffffffffffffffffffffffff168152602001908152602001600020819055503373ffffffffffffffffffffffffffffffffffffffff167fb27d7e2f60a2022903d49f653fbb6f06e4fd14fd5f2291655fb7c499645ba6148383604051611df4929190612972565b60405180910390a25050565b600160009054906101000a900473ffffffffffffffffffffffffffffffffffffffff1681565b6000611e30611e5a565b670de0b6b3a7640000611e41610810565b611e4b9190612a33565b611e559190612a02565b905090565b60008060009054906101000a900473ffffffffffffffffffffffffffffffffffffffff1673ffffffffffffffffffffffffffffffffffffffff166370a08231306040518263ffffffff1660e01b8152600401611eb691906128a1565b60206040518083038186803b158015611ece57600080fd5b505afa158015611ee2573d6000803e3d6000fd5b505050506040513d601f19601f82011682018060405250810190611f0691906127e4565b905090565b60008054906101000a900473ffffffffffffffffffffffffffffffffffffffff1681565b6000600554905090565b600660149054906101000a900460ff1615611f89576040517f08c379a0000000000000000000000000000000000000000000000000000000008152600401611f8090612937565b60405180910390fd5b6001600660146101000a81548160ff021916908315150217905550611fac610810565b811061202b573373ffffffffffffffffffffffffffffffffffffffff166108fc349081150290604051600060405180830381858888f19350505050158015611ff8573d6000803e3d6000fd5b506040517fe45bfdc700000000000000000000000000000000000000000000000000000000815260040160405180910390fd5b600060646005548361203d9190612a33565b6120479190612a02565b905080341015612083576040517fb08ede0900000000000000000000000000000000000000000000000000000000815260040160405180910390fd5b806004600082825461209591906129ac565b92505081905550600081346120aa9190612a8d565b905060006120b6611e5a565b90506000846120c3610810565b6120cd91906129ac565b90506000816003546120df9190612a02565b9050600081846120ef9190612a8d565b9050600160009054906101000a900473ffffffffffffffffffffffffffffffffffffffff1673ffffffffffffffffffffffffffffffffffffffff166323b872dd33308a6040518463ffffffff1660e01b8152600401612150939291906128bc565b602060405180830381600087803b15801561216a57600080fd5b505af115801561217e573d6000803e3d6000fd5b505050506040513d601f19601f820116820180604052508101906121a2919061278a565b5060008054906101000a900473ffffffffffffffffffffffffffffffffffffffff1673ffffffffffffffffffffffffffffffffffffffff1663a9059cbb33836040518363ffffffff1660e01b81526004016121fe9291906128f3565b602060405180830381600087803b15801561221857600080fd5b505af115801561222c573d6000803e3d6000fd5b505050506040513d601f19601f82011682018060405250810190612250919061278a565b503373ffffffffffffffffffffffffffffffffffffffff166108fc869081150290604051600060405180830381858888f19350505050158015612297573d6000803e3d6000fd5b507f6f32bb515641ec539b66bf327d21765de8c4200f94d348cee1dc835bb7532ab160008054906101000a900473ffffffffffffffffffffffffffffffffffffffff166122e2611e26565b6040516122f09291906128f3565b60405180910390a17f6f32bb515641ec539b66bf327d21765de8c4200f94d348cee1dc835bb7532ab1600160009054906101000a900473ffffffffffffffffffffffffffffffffffffffff1661234461237e565b6040516123529291906128f3565b60405180910390a15050505050506000600660146101000a81548160ff02191690831515021790555050565b6000612388610810565b670de0b6b3a7640000612399611e5a565b6123a39190612a33565b6123ad9190612a02565b905090565b600660149054906101000a900460ff1615612402576040517f08c379a00000000000000000000000000000000000000000000000000000000081526004016123f990612937565b60405180910390fd5b6001600660146101000a81548160ff0219169083151502179055508173ffffffffffffffffffffffffffffffffffffffff166323b872dd33306124458786611444565b6040518463ffffffff1660e01b8152600401612463939291906128bc565b602060405180830381600087803b15801561247d57600080fd5b505af1158015612491573d6000803e3d6000fd5b505050506040513d601f19601f820116820180604052508101906124b5919061278a565b508273ffffffffffffffffffffffffffffffffffffffff166323b872dd3330846040518463ffffffff1660e01b81526004016124f3939291906128bc565b602060405180830381600087803b15801561250d57600080fd5b505af1158015612521573d6000803e3d6000fd5b505050506040513d601f19601f82011682018060405250810190612545919061278a565b506125508382611444565b8161255b9190612a33565b600760003373ffffffffffffffffffffffffffffffffffffffff1673ffffffffffffffffffffffffffffffffffffffff16815260200190815260200160002060008282546125a991906129ac565b925050819055506125ba8382611444565b816125c59190612a33565b600360008282546125d691906129ac565b925050819055503373ffffffffffffffffffffffffffffffffffffffff167fb27d7e2f60a2022903d49f653fbb6f06e4fd14fd5f2291655fb7c499645ba61461261f8584611444565b8360405161262e929190612972565b60405180910390a26000600660146101000a81548160ff021916908315150217905550505050565b600047905090565b60096020528060005260406000206000915090505481565b60008135905061268581612b95565b92915050565b60008151905061269a81612bac565b92915050565b6000813590506126af81612bc3565b92915050565b6000815190506126c481612bc3565b92915050565b6000602082840312156126e0576126df612b67565b5b60006126ee84828501612676565b91505092915050565b6000806000606084860312156127105761270f612b67565b5b600061271e86828701612676565b935050602061272f86828701612676565b9250506040612740868287016126a0565b9150509250925092565b6000806040838503121561276157612760612b67565b5b600061276f85828601612676565b9250506020612780858286016126a0565b9150509250929050565b6000602082840312156127a05761279f612b67565b5b60006127ae8482850161268b565b91505092915050565b6000602082840312156127cd576127cc612b67565b5b60006127db848285016126a0565b91505092915050565b6000602082840312156127fa576127f9612b67565b5b6000612808848285016126b5565b91505092915050565b6000806040838503121561282857612827612b67565b5b6000612836858286016126a0565b9250506020612847858286016126a0565b9150509250929050565b61285a81612ac1565b82525050565b61286981612ad3565b82525050565b600061287c600e8361299b565b915061288782612b6c565b602082019050919050565b61289b81612aff565b82525050565b60006020820190506128b66000830184612851565b92915050565b60006060820190506128d16000830186612851565b6128de6020830185612851565b6128eb6040830184612892565b949350505050565b60006040820190506129086000830185612851565b6129156020830184612892565b9392505050565b60006020820190506129316000830184612860565b92915050565b600060208201905081810360008301526129508161286f565b9050919050565b600060208201905061296c6000830184612892565b92915050565b60006040820190506129876000830185612892565b6129946020830184612892565b9392505050565b600082825260208201905092915050565b60006129b782612aff565b91506129c283612aff565b9250827fffffffffffffffffffffffffffffffffffffffffffffffffffffffffffffffff038211156129f7576129f6612b09565b5b828201905092915050565b6000612a0d82612aff565b9150612a1883612aff565b925082612a2857612a27612b38565b5b828204905092915050565b6000612a3e82612aff565b9150612a4983612aff565b9250817fffffffffffffffffffffffffffffffffffffffffffffffffffffffffffffffff0483118215151615612a8257612a81612b09565b5b828202905092915050565b6000612a9882612aff565b9150612aa383612aff565b925082821015612ab657612ab5612b09565b5b828203905092915050565b6000612acc82612adf565b9050919050565b60008115159050919050565b600073ffffffffffffffffffffffffffffffffffffffff82169050919050565b6000819050919050565b7f4e487b7100000000000000000000000000000000000000000000000000000000600052601160045260246000fd5b7f4e487b7100000000000000000000000000000000000000000000000000000000600052601260045260246000fd5b600080fd5b7f4e6f2072652d656e7472616e6379000000000000000000000000000000000000600082015250565b612b9e81612ac1565b8114612ba957600080fd5b50565b612bb581612ad3565b8114612bc057600080fd5b50565b612bcc81612aff565b8114612bd757600080fd5b5056fea2646970667358221220e3702e11c17a08d5ab91221098662b55b7d8907b03d6966118fabe1fc7f3434f64736f6c63430008070033",
  "devdoc": {
    "details": "A decentralized liquidity pool contract for swapping assets and providing liquidity.",
    "kind": "dev",
    "methods": {
      "addInitialLiquidity(uint256,uint256)": {
        "details": "Function to add initial liquidity to the pool. Only callable by the owner.Needs the ERC-20 approval for transferFrom.",
        "params": {
          "_assetOneAmount": "The amount of the first asset to add.",
          "_assetTwoAmount": "The amount of the second asset to add."
        }
      },
      "addLiquidity(address,address,uint256)": {
        "details": "Function to add additional liquidity to the pool.Needs the ERC-20 approval for transferFrom.",
        "params": {
          "_amount": "The amount of the first asset to add.",
          "_asset": "The address of the first asset.",
          "_secondAsset": "The address of the second asset."
        }
      },
      "addressBalance()": {
        "details": "Function to get the current ETH balance of the contract.",
        "returns": {
          "_0": "The current ETH balance of the contract."
        }
      },
      "amountOfOppositeTokenNeeded(address,uint256)": {
        "details": "Function to get the second part of the liquidity token pair needed for providing liquidity.",
        "params": {
          "_amount": "The amount of the asset.",
          "_asset": "The address of the asset."
        },
        "returns": {
          "_0": "The quantity of the second asset needed for providing liquidity."
        }
      },
      "assetOnePrice()": {
        "details": "Function to get the current price of the first asset in terms of the second asset.",
        "returns": {
          "_0": "The current price of the first asset * 10**18."
        }
      },
      "assetTwoPrice()": {
        "details": "Function to get the current price of the second asset in terms of the first asset.",
        "returns": {
          "_0": "The current price of the second asset * 10**18."
        }
      },
      "changeSwapFee(uint256)": {
        "details": "Function to change the swap fee. Only callable by the owner.",
        "params": {
          "newSwapFee": "The new swap fee to set."
        }
      },
      "constructor": {
        "details": "Constructor to initialize the liquidity pool with two asset addresses.",
        "params": {
          "_assetOneAddress": "The address of the first asset.",
          "_assetTwoAddress": "The address of the second asset."
        }
      },
      "getAssetBalace(address)": {
        "details": "Function to get the current balance of a given asset held by the contract.",
        "params": {
          "_address": "The address of the asset."
        },
        "returns": {
          "_0": "The current balance of the asset."
        }
      },
      "getAssetOne()": {
        "details": "Function to get the amount of the first asset held by the contract.",
        "returns": {
          "_0": "The current balance of the first asset."
        }
      },
      "getAssetTwo()": {
        "details": "Function to get the amount of the second asset held by the contract.",
        "returns": {
          "_0": "The current balance of the second asset."
        }
      },
      "getLiquidity()": {
        "details": "Function to get the total liquidity in the pool.",
        "returns": {
          "_0": "The total liquidity in the pool."
        }
      },
      "getLpTokenQuantity(address)": {
        "details": "Function to get the quantity of LP tokens owned by a specific address.",
        "params": {
          "_address": "The address of the LP token holder."
        },
        "returns": {
          "_0": "The quantity of LP tokens owned by the address."
        }
      },
      "getSwapFee()": {
        "details": "Function to get the current swap fee percentage.",
        "returns": {
          "_0": "The current swap fee percentage."
        }
      },
      "getSwapQuantity(address,uint256)": {
        "details": "Function to get the quantity of the second asset that would be returned for a given amount of the first asset.",
        "params": {
          "_amount": "The amount of the first asset being sold.",
          "sellingAsset": "The address of the asset being sold."
        },
        "returns": {
          "_0": "The quantity of the second asset that would be returned"
        }
      },
      "getYield()": {
        "details": "Function to allow users to claim their yield. Can be called once a day."
      },
      "isTime()": {
        "details": "Function to check if enough time has passed for the user to claim yield.",
        "returns": {
          "_0": "Whether enough time has passed or not."
        }
      },
      "isTimeInitialLiquidity()": {
        "details": "Function to check if enough time has passed since the initial liquidity was provided.",
        "returns": {
          "_0": "Whether enough time has passed or not."
        }
      },
      "removeLiquidity(uint256)": {
        "details": "Function to remove liquidity from the pool.",
        "params": {
          "_amount": "The percentage of liquidity to withdraw(10 -> 10%)."
        }
      },
      "sellAssetOne(uint256)": {
        "details": "Function to sell the first asset and receive the second asset.",
        "params": {
          "_amount": "The amount of the first asset to sell."
        }
      },
      "sellAssetTwo(uint256)": {
        "details": "Function to sell the second asset and receive the first asset.",
        "params": {
          "_amount": "The amount of the second asset to sell."
        }
      },
      "yieldAmount()": {
        "details": "Function to get the current yield amount available in the pool.",
        "returns": {
          "_0": "The current yield amount."
        }
      }
    },
    "title": "LiquidityPool",
    "version": 1
  },
  "userdoc": {
    "kind": "user",
    "methods": {},
    "version": 1
  },
  "storageLayout": {
    "storage": [
      {
        "astId": 130,
        "contract": "contracts/LiquidityPool.sol:LiquidityPool",
        "label": "assetOneAddress",
        "offset": 0,
        "slot": "0",
        "type": "t_address"
      },
      {
        "astId": 132,
        "contract": "contracts/LiquidityPool.sol:LiquidityPool",
        "label": "assetTwoAddress",
        "offset": 0,
        "slot": "1",
        "type": "t_address"
      },
      {
        "astId": 134,
        "contract": "contracts/LiquidityPool.sol:LiquidityPool",
        "label": "initialLiquidity",
        "offset": 0,
        "slot": "2",
        "type": "t_uint256"
      },
      {
        "astId": 136,
        "contract": "contracts/LiquidityPool.sol:LiquidityPool",
        "label": "liquidity",
        "offset": 0,
        "slot": "3",
        "type": "t_uint256"
      },
      {
        "astId": 138,
        "contract": "contracts/LiquidityPool.sol:LiquidityPool",
        "label": "yield",
        "offset": 0,
        "slot": "4",
        "type": "t_uint256"
      },
      {
        "astId": 140,
        "contract": "contracts/LiquidityPool.sol:LiquidityPool",
        "label": "swapFee",
        "offset": 0,
        "slot": "5",
        "type": "t_uint256"
      },
      {
        "astId": 142,
        "contract": "contracts/LiquidityPool.sol:LiquidityPool",
        "label": "owner",
        "offset": 0,
        "slot": "6",
        "type": "t_address"
      },
      {
        "astId": 144,
        "contract": "contracts/LiquidityPool.sol:LiquidityPool",
        "label": "locked",
        "offset": 20,
        "slot": "6",
        "type": "t_bool"
      },
      {
        "astId": 217,
        "contract": "contracts/LiquidityPool.sol:LiquidityPool",
        "label": "lpTokenQuantity",
        "offset": 0,
        "slot": "7",
        "type": "t_mapping(t_address,t_uint256)"
      },
      {
        "astId": 1017,
        "contract": "contracts/LiquidityPool.sol:LiquidityPool",
        "label": "yieldTaken",
        "offset": 0,
        "slot": "8",
        "type": "t_mapping(t_address,t_uint256)"
      },
      {
        "astId": 1123,
        "contract": "contracts/LiquidityPool.sol:LiquidityPool",
        "label": "lastYieldFarmedTime",
        "offset": 0,
        "slot": "9",
        "type": "t_mapping(t_address,t_uint256)"
      },
      {
        "astId": 1127,
        "contract": "contracts/LiquidityPool.sol:LiquidityPool",
        "label": "initialLiquidityProvidedTime",
        "offset": 0,
        "slot": "10",
        "type": "t_mapping(t_address,t_uint256)"
      }
    ],
    "types": {
      "t_address": {
        "encoding": "inplace",
        "label": "address",
        "numberOfBytes": "20"
      },
      "t_bool": {
        "encoding": "inplace",
        "label": "bool",
        "numberOfBytes": "1"
      },
      "t_mapping(t_address,t_uint256)": {
        "encoding": "mapping",
        "key": "t_address",
        "label": "mapping(address => uint256)",
        "numberOfBytes": "32",
        "value": "t_uint256"
      },
      "t_uint256": {
        "encoding": "inplace",
        "label": "uint256",
        "numberOfBytes": "32"
      }
    }
  }
}