{
  "address": "0x2E560Ed8555b22871dD321D8A31c0218FAA132B8",
  "abi": [
    {
      "inputs": [
        {
          "internalType": "address",
          "name": "_assetOneAddress",
          "type": "address"
        },
        {
          "internalType": "address",
          "name": "_assetTwoAddress",
          "type": "address"
        }
      ],
      "stateMutability": "nonpayable",
      "type": "constructor"
    },
    {
      "inputs": [],
      "name": "addressNotCorrect",
      "type": "error"
    },
    {
      "inputs": [],
      "name": "assetNotCorrect",
      "type": "error"
    },
    {
      "inputs": [],
      "name": "initialLiquidityAlreadyProvided",
      "type": "error"
    },
    {
      "inputs": [],
      "name": "needToCallExistingFunction",
      "type": "error"
    },
    {
      "inputs": [],
      "name": "notEnoughGas",
      "type": "error"
    },
    {
      "inputs": [],
      "name": "notEnoughTimePassed",
      "type": "error"
    },
    {
      "inputs": [],
      "name": "notEnoughTokens",
      "type": "error"
    },
    {
      "anonymous": false,
      "inputs": [
        {
          "indexed": true,
          "internalType": "address",
          "name": "_address",
          "type": "address"
        },
        {
          "indexed": false,
          "internalType": "uint256",
          "name": "_assetOneAmount",
          "type": "uint256"
        },
        {
          "indexed": false,
          "internalType": "uint256",
          "name": "_assetTwoAmount",
          "type": "uint256"
        }
      ],
      "name": "liquidityAdded",
      "type": "event"
    },
    {
      "anonymous": false,
      "inputs": [
        {
          "indexed": true,
          "internalType": "address",
          "name": "_address",
          "type": "address"
        },
        {
          "indexed": false,
          "internalType": "uint256",
          "name": "_assetOneAmount",
          "type": "uint256"
        },
        {
          "indexed": false,
          "internalType": "uint256",
          "name": "_assetTwoAmount",
          "type": "uint256"
        }
      ],
      "name": "liquidityRemoved",
      "type": "event"
    },
    {
      "anonymous": false,
      "inputs": [
        {
          "indexed": false,
          "internalType": "address",
          "name": "_asset",
          "type": "address"
        },
        {
          "indexed": false,
          "internalType": "uint256",
          "name": "price",
          "type": "uint256"
        }
      ],
      "name": "priceChanged",
      "type": "event"
    },
    {
      "anonymous": false,
      "inputs": [
        {
          "indexed": true,
          "internalType": "address",
          "name": "_address",
          "type": "address"
        },
        {
          "indexed": false,
          "internalType": "uint256",
          "name": "_amount",
          "type": "uint256"
        }
      ],
      "name": "yieldFarmed",
      "type": "event"
    },
    {
      "stateMutability": "payable",
      "type": "fallback"
    },
    {
      "inputs": [
        {
          "internalType": "uint256",
          "name": "_assetOneAmount",
          "type": "uint256"
        },
        {
          "internalType": "uint256",
          "name": "_assetTwoAmount",
          "type": "uint256"
        }
      ],
      "name": "addInitialLiquidity",
      "outputs": [],
      "stateMutability": "nonpayable",
      "type": "function"
    },
    {
      "inputs": [
        {
          "internalType": "address",
          "name": "_asset",
          "type": "address"
        },
        {
          "internalType": "address",
          "name": "_secondAsset",
          "type": "address"
        },
        {
          "internalType": "uint256",
          "name": "_amount",
          "type": "uint256"
        }
      ],
      "name": "addLiquidity",
      "outputs": [],
      "stateMutability": "nonpayable",
      "type": "function"
    },
    {
      "inputs": [],
      "name": "addressBalance",
      "outputs": [
        {
          "internalType": "uint256",
          "name": "",
          "type": "uint256"
        }
      ],
      "stateMutability": "view",
      "type": "function"
    },
    {
      "inputs": [
        {
          "internalType": "address",
          "name": "_asset",
          "type": "address"
        },
        {
          "internalType": "uint256",
          "name": "_amount",
          "type": "uint256"
        }
      ],
      "name": "amountOfOppositeTokenNeeded",
      "outputs": [
        {
          "internalType": "uint256",
          "name": "",
          "type": "uint256"
        }
      ],
      "stateMutability": "view",
      "type": "function"
    },
    {
      "inputs": [],
      "name": "assetOneAddress",
      "outputs": [
        {
          "internalType": "address",
          "name": "",
          "type": "address"
        }
      ],
      "stateMutability": "view",
      "type": "function"
    },
    {
      "inputs": [],
      "name": "assetOnePrice",
      "outputs": [
        {
          "internalType": "uint256",
          "name": "",
          "type": "uint256"
        }
      ],
      "stateMutability": "view",
      "type": "function"
    },
    {
      "inputs": [],
      "name": "assetTwoAddress",
      "outputs": [
        {
          "internalType": "address",
          "name": "",
          "type": "address"
        }
      ],
      "stateMutability": "view",
      "type": "function"
    },
    {
      "inputs": [],
      "name": "assetTwoPrice",
      "outputs": [
        {
          "internalType": "uint256",
          "name": "",
          "type": "uint256"
        }
      ],
      "stateMutability": "view",
      "type": "function"
    },
    {
      "inputs": [
        {
          "internalType": "uint256",
          "name": "newSwapFee",
          "type": "uint256"
        }
      ],
      "name": "changeSwapFee",
      "outputs": [],
      "stateMutability": "nonpayable",
      "type": "function"
    },
    {
      "inputs": [
        {
          "internalType": "address",
          "name": "_address",
          "type": "address"
        }
      ],
      "name": "getAssetBalace",
      "outputs": [
        {
          "internalType": "uint256",
          "name": "",
          "type": "uint256"
        }
      ],
      "stateMutability": "view",
      "type": "function"
    },
    {
      "inputs": [],
      "name": "getAssetOne",
      "outputs": [
        {
          "internalType": "uint256",
          "name": "",
          "type": "uint256"
        }
      ],
      "stateMutability": "view",
      "type": "function"
    },
    {
      "inputs": [],
      "name": "getAssetTwo",
      "outputs": [
        {
          "internalType": "uint256",
          "name": "",
          "type": "uint256"
        }
      ],
      "stateMutability": "view",
      "type": "function"
    },
    {
      "inputs": [],
      "name": "getLiquidity",
      "outputs": [
        {
          "internalType": "uint256",
          "name": "",
          "type": "uint256"
        }
      ],
      "stateMutability": "view",
      "type": "function"
    },
    {
      "inputs": [
        {
          "internalType": "address",
          "name": "_address",
          "type": "address"
        }
      ],
      "name": "getLpTokenQuantity",
      "outputs": [
        {
          "internalType": "uint256",
          "name": "",
          "type": "uint256"
        }
      ],
      "stateMutability": "view",
      "type": "function"
    },
    {
      "inputs": [],
      "name": "getSwapFee",
      "outputs": [
        {
          "internalType": "uint256",
          "name": "",
          "type": "uint256"
        }
      ],
      "stateMutability": "view",
      "type": "function"
    },
    {
      "inputs": [
        {
          "internalType": "address",
          "name": "sellingAsset",
          "type": "address"
        },
        {
          "internalType": "uint256",
          "name": "_amount",
          "type": "uint256"
        }
      ],
      "name": "getSwapQuantity",
      "outputs": [
        {
          "internalType": "uint256",
          "name": "",
          "type": "uint256"
        }
      ],
      "stateMutability": "view",
      "type": "function"
    },
    {
      "inputs": [],
      "name": "getYield",
      "outputs": [],
      "stateMutability": "nonpayable",
      "type": "function"
    },
    {
      "inputs": [],
      "name": "initialLiquidity",
      "outputs": [
        {
          "internalType": "uint256",
          "name": "",
          "type": "uint256"
        }
      ],
      "stateMutability": "view",
      "type": "function"
    },
    {
      "inputs": [
        {
          "internalType": "address",
          "name": "",
          "type": "address"
        }
      ],
      "name": "initialLiquidityProvidedTime",
      "outputs": [
        {
          "internalType": "uint256",
          "name": "",
          "type": "uint256"
        }
      ],
      "stateMutability": "view",
      "type": "function"
    },
    {
      "inputs": [],
      "name": "isTime",
      "outputs": [
        {
          "internalType": "bool",
          "name": "",
          "type": "bool"
        }
      ],
      "stateMutability": "view",
      "type": "function"
    },
    {
      "inputs": [],
      "name": "isTimeInitialLiquidity",
      "outputs": [
        {
          "internalType": "bool",
          "name": "",
          "type": "bool"
        }
      ],
      "stateMutability": "view",
      "type": "function"
    },
    {
      "inputs": [
        {
          "internalType": "address",
          "name": "",
          "type": "address"
        }
      ],
      "name": "lastYieldFarmedTime",
      "outputs": [
        {
          "internalType": "uint256",
          "name": "",
          "type": "uint256"
        }
      ],
      "stateMutability": "view",
      "type": "function"
    },
    {
      "inputs": [],
      "name": "liquidity",
      "outputs": [
        {
          "internalType": "uint256",
          "name": "",
          "type": "uint256"
        }
      ],
      "stateMutability": "view",
      "type": "function"
    },
    {
      "inputs": [
        {
          "internalType": "address",
          "name": "",
          "type": "address"
        }
      ],
      "name": "lpTokenQuantity",
      "outputs": [
        {
          "internalType": "uint256",
          "name": "",
          "type": "uint256"
        }
      ],
      "stateMutability": "view",
      "type": "function"
    },
    {
      "inputs": [],
      "name": "owner",
      "outputs": [
        {
          "internalType": "address",
          "name": "",
          "type": "address"
        }
      ],
      "stateMutability": "view",
      "type": "function"
    },
    {
      "inputs": [
        {
          "internalType": "uint256",
          "name": "_amount",
          "type": "uint256"
        }
      ],
      "name": "removeLiquidity",
      "outputs": [],
      "stateMutability": "nonpayable",
      "type": "function"
    },
    {
      "inputs": [
        {
          "internalType": "uint256",
          "name": "_amount",
          "type": "uint256"
        }
      ],
      "name": "sellAssetOne",
      "outputs": [
        {
          "internalType": "uint256",
          "name": "",
          "type": "uint256"
        }
      ],
      "stateMutability": "payable",
      "type": "function"
    },
    {
      "inputs": [
        {
          "internalType": "uint256",
          "name": "_amount",
          "type": "uint256"
        }
      ],
      "name": "sellAssetTwo",
      "outputs": [
        {
          "internalType": "uint256",
          "name": "",
          "type": "uint256"
        }
      ],
      "stateMutability": "payable",
      "type": "function"
    },
    {
      "inputs": [],
      "name": "swapFee",
      "outputs": [
        {
          "internalType": "uint256",
          "name": "",
          "type": "uint256"
        }
      ],
      "stateMutability": "view",
      "type": "function"
    },
    {
      "inputs": [],
      "name": "yield",
      "outputs": [
        {
          "internalType": "uint256",
          "name": "",
          "type": "uint256"
        }
      ],
      "stateMutability": "view",
      "type": "function"
    },
    {
      "inputs": [],
      "name": "yieldAmount",
      "outputs": [
        {
          "internalType": "uint256",
          "name": "",
          "type": "uint256"
        }
      ],
      "stateMutability": "view",
      "type": "function"
    },
    {
      "inputs": [
        {
          "internalType": "address",
          "name": "",
          "type": "address"
        }
      ],
      "name": "yieldTaken",
      "outputs": [
        {
          "internalType": "uint256",
          "name": "",
          "type": "uint256"
        }
      ],
      "stateMutability": "view",
      "type": "function"
    },
    {
      "stateMutability": "payable",
      "type": "receive"
    }
  ],
  "transactionHash": "0xe66114aad6ec6411dec21a8d747730e9df72930054d1557667b3bfe613007e07",
  "args": [
    "0x504739D3569D2cc17A09a58eC33b13db87340BFa",
    "0x82E21d09549d820380e1d41fdD79b795BeF7A0d1"
  ],
  "numDeployments": 5,
  "solcInputHash": "482776f1951556568fa4c22584320e04",
  "bytecode": "0x60806040523480156200001157600080fd5b5060405162002e5438038062002e54833981810160405281019062000037919062000179565b816000806101000a81548173ffffffffffffffffffffffffffffffffffffffff021916908373ffffffffffffffffffffffffffffffffffffffff16021790555080600160006101000a81548173ffffffffffffffffffffffffffffffffffffffff021916908373ffffffffffffffffffffffffffffffffffffffff16021790555033600660006101000a81548173ffffffffffffffffffffffffffffffffffffffff021916908373ffffffffffffffffffffffffffffffffffffffff16021790555066038d7ea4c680006005819055505050620001c0565b600080fd5b600073ffffffffffffffffffffffffffffffffffffffff82169050919050565b6000620001418262000114565b9050919050565b620001538162000134565b81146200015f57600080fd5b50565b600081519050620001738162000148565b92915050565b600080604083850312156200019357620001926200010f565b5b6000620001a38582860162000162565b9250506020620001b68582860162000162565b9150509250929050565b612c8480620001d06000396000f3fe6080604052600436106101e75760003560e01c80638da5cb5b11610102578063aa03f2ed11610095578063e35ba8ab11610064578063e35ba8ab14610772578063e4a767261461079d578063f318e557146107c6578063ffebfc8c146107f15761021e565b8063aa03f2ed146106c1578063ce5efee3146106ec578063d4cadf6814610717578063dc171624146107425761021e565b8063a04f6639116100d1578063a04f663914610617578063a40f4fa114610642578063a87548031461066b578063a97533b8146106965761021e565b80638da5cb5b1461054957806395cc4c5e146105745780639a61c36a146105b15780639c8f9f23146105ee5761021e565b806340702adc1161017a578063696c613111610149578063696c61311461048f5780637c262871146104b857806381bace7d146104cf5780638477a6341461050c5761021e565b806340702adc146103de5780634257dc4c146104095780634d2d757c1461043957806354cf2aeb146104645761021e565b806328593984116101b6578063285939841461030e57806328da1aef146103395780632d4ce66914610376578063405eae91146103b35761021e565b80630910a51014610250578063131a6f011461027b5780631a686502146102a657806324aabb92146102d15761021e565b3661021e576040517fdfaf840900000000000000000000000000000000000000000000000000000000815260040160405180910390fd5b6040517fdfaf840900000000000000000000000000000000000000000000000000000000815260040160405180910390fd5b34801561025c57600080fd5b5061026561082e565b6040516102729190612651565b60405180910390f35b34801561028757600080fd5b50610290610838565b60405161029d9190612651565b60405180910390f35b3480156102b257600080fd5b506102bb6108ea565b6040516102c89190612651565b60405180910390f35b3480156102dd57600080fd5b506102f860048036038101906102f391906126cf565b6108f0565b6040516103059190612651565b60405180910390f35b34801561031a57600080fd5b50610323610908565b6040516103309190612651565b60405180910390f35b34801561034557600080fd5b50610360600480360381019061035b9190612728565b61090e565b60405161036d9190612651565b60405180910390f35b34801561038257600080fd5b5061039d600480360381019061039891906126cf565b610a7d565b6040516103aa9190612651565b60405180910390f35b3480156103bf57600080fd5b506103c8610b0f565b6040516103d59190612783565b60405180910390f35b3480156103ea57600080fd5b506103f3610bbe565b6040516104009190612651565b60405180910390f35b610423600480360381019061041e919061279e565b610bc4565b6040516104309190612651565b60405180910390f35b34801561044557600080fd5b5061044e610fd6565b60405161045b9190612783565b60405180910390f35b34801561047057600080fd5b5061047961103f565b6040516104869190612651565b60405180910390f35b34801561049b57600080fd5b506104b660048036038101906104b1919061279e565b611045565b005b3480156104c457600080fd5b506104cd61105d565b005b3480156104db57600080fd5b506104f660048036038101906104f191906126cf565b6112f2565b6040516105039190612651565b60405180910390f35b34801561051857600080fd5b50610533600480360381019061052e91906126cf565b6113fb565b6040516105409190612651565b60405180910390f35b34801561055557600080fd5b5061055e611413565b60405161056b91906127da565b60405180910390f35b34801561058057600080fd5b5061059b60048036038101906105969190612728565b611439565b6040516105a89190612651565b60405180910390f35b3480156105bd57600080fd5b506105d860048036038101906105d391906126cf565b611522565b6040516105e59190612651565b60405180910390f35b3480156105fa57600080fd5b506106156004803603810190610610919061279e565b61153a565b005b34801561062357600080fd5b5061062c611ae6565b6040516106399190612651565b60405180910390f35b34801561064e57600080fd5b50610669600480360381019061066491906127f5565b611af0565b005b34801561067757600080fd5b50610680611df5565b60405161068d91906127da565b60405180910390f35b3480156106a257600080fd5b506106ab611e1b565b6040516106b89190612651565b60405180910390f35b3480156106cd57600080fd5b506106d6611e4f565b6040516106e39190612651565b60405180910390f35b3480156106f857600080fd5b50610701611f00565b60405161070e91906127da565b60405180910390f35b34801561072357600080fd5b5061072c611f24565b6040516107399190612651565b60405180910390f35b61075c6004803603810190610757919061279e565b611f2e565b6040516107699190612651565b60405180910390f35b34801561077e57600080fd5b50610787612340565b6040516107949190612651565b60405180910390f35b3480156107a957600080fd5b506107c460048036038101906107bf9190612835565b612374565b005b3480156107d257600080fd5b506107db612618565b6040516107e89190612651565b60405180910390f35b3480156107fd57600080fd5b50610818600480360381019061081391906126cf565b612620565b6040516108259190612651565b60405180910390f35b6000600354905090565b6000600160009054906101000a900473ffffffffffffffffffffffffffffffffffffffff1673ffffffffffffffffffffffffffffffffffffffff166370a08231306040518263ffffffff1660e01b815260040161089591906127da565b60206040518083038186803b1580156108ad57600080fd5b505afa1580156108c1573d6000803e3d6000fd5b505050506040513d601f19601f820116820180604052508101906108e5919061289d565b905090565b60035481565b60076020528060005260406000206000915090505481565b60045481565b60008060009054906101000a900473ffffffffffffffffffffffffffffffffffffffff1673ffffffffffffffffffffffffffffffffffffffff168373ffffffffffffffffffffffffffffffffffffffff1614156109aa57600082610970611e4f565b61097a91906128f9565b905060008160035461098c919061297e565b905080610997610838565b6109a191906129af565b92505050610a77565b600160009054906101000a900473ffffffffffffffffffffffffffffffffffffffff1673ffffffffffffffffffffffffffffffffffffffff168373ffffffffffffffffffffffffffffffffffffffff161415610a4557600082610a0b610838565b610a1591906128f9565b9050600081600354610a27919061297e565b905080610a32611e4f565b610a3c91906129af565b92505050610a77565b6040517fd526485500000000000000000000000000000000000000000000000000000000815260040160405180910390fd5b92915050565b60008173ffffffffffffffffffffffffffffffffffffffff166370a08231306040518263ffffffff1660e01b8152600401610ab891906127da565b60206040518083038186803b158015610ad057600080fd5b505afa158015610ae4573d6000803e3d6000fd5b505050506040513d601f19601f82011682018060405250810190610b08919061289d565b9050919050565b6000600960003373ffffffffffffffffffffffffffffffffffffffff1673ffffffffffffffffffffffffffffffffffffffff1681526020019081526020016000205060004290508062015180600960003373ffffffffffffffffffffffffffffffffffffffff1673ffffffffffffffffffffffffffffffffffffffff16815260200190815260200160002054610ba591906128f9565b1015610bb5576001915050610bbb565b60009150505b90565b60025481565b6000600660149054906101000a900460ff1615610c16576040517f08c379a0000000000000000000000000000000000000000000000000000000008152600401610c0d90612a40565b60405180910390fd5b6001600660146101000a81548160ff021916908315150217905550600554341015610c6d576040517fb08ede0900000000000000000000000000000000000000000000000000000000815260040160405180910390fd5b60055460046000828254610c8191906128f9565b92505081905550600060055434610c9891906129af565b90506000610ca4610838565b9050600084610cb1611e4f565b610cbb91906128f9565b9050600081600354610ccd919061297e565b905060008184610cdd91906129af565b905060008054906101000a900473ffffffffffffffffffffffffffffffffffffffff1673ffffffffffffffffffffffffffffffffffffffff166323b872dd33308a6040518463ffffffff1660e01b8152600401610d3c93929190612a60565b602060405180830381600087803b158015610d5657600080fd5b505af1158015610d6a573d6000803e3d6000fd5b505050506040513d601f19601f82011682018060405250810190610d8e9190612ac3565b50600160009054906101000a900473ffffffffffffffffffffffffffffffffffffffff1673ffffffffffffffffffffffffffffffffffffffff1663a9059cbb33836040518363ffffffff1660e01b8152600401610dec929190612af0565b602060405180830381600087803b158015610e0657600080fd5b505af1158015610e1a573d6000803e3d6000fd5b505050506040513d601f19601f82011682018060405250810190610e3e9190612ac3565b5060003373ffffffffffffffffffffffffffffffffffffffff1686604051610e6590612b4a565b60006040518083038185875af1925050503d8060008114610ea2576040519150601f19603f3d011682016040523d82523d6000602084013e610ea7565b606091505b5050905080610eeb576040517f08c379a0000000000000000000000000000000000000000000000000000000008152600401610ee290612bab565b60405180910390fd5b7f6f32bb515641ec539b66bf327d21765de8c4200f94d348cee1dc835bb7532ab160008054906101000a900473ffffffffffffffffffffffffffffffffffffffff16610f35611e1b565b604051610f43929190612af0565b60405180910390a17f6f32bb515641ec539b66bf327d21765de8c4200f94d348cee1dc835bb7532ab1600160009054906101000a900473ffffffffffffffffffffffffffffffffffffffff16610f97612340565b604051610fa5929190612af0565b60405180910390a18196505050505050506000600660146101000a81548160ff021916908315150217905550919050565b60006301e13380600a60003373ffffffffffffffffffffffffffffffffffffffff1673ffffffffffffffffffffffffffffffffffffffff1681526020019081526020016000205461102791906128f9565b421115611037576001905061103c565b600090505b90565b60055481565b600660009054906101000a9050508060058190555050565b60001515611069610b0f565b151514156110a3576040517ffdbfe33900000000000000000000000000000000000000000000000000000000815260040160405180910390fd5b42600960003373ffffffffffffffffffffffffffffffffffffffff1673ffffffffffffffffffffffffffffffffffffffff168152602001908152602001600020819055506000600860003373ffffffffffffffffffffffffffffffffffffffff1673ffffffffffffffffffffffffffffffffffffffff16815260200190815260200160002054905060006003546064600760003373ffffffffffffffffffffffffffffffffffffffff1673ffffffffffffffffffffffffffffffffffffffff1681526020019081526020016000205461117c9190612bcb565b611186919061297e565b905060006064828360648661119b9190612bcb565b6111a5919061297e565b6004546111b291906129af565b6111bc9190612bcb565b6111c6919061297e565b905047811115611202576040517fbf0ebd8400000000000000000000000000000000000000000000000000000000815260040160405180910390fd5b80600860003373ffffffffffffffffffffffffffffffffffffffff1673ffffffffffffffffffffffffffffffffffffffff168152602001908152602001600020600082825461125191906128f9565b925050819055503373ffffffffffffffffffffffffffffffffffffffff166108fc829081150290604051600060405180830381858888f1935050505015801561129e573d6000803e3d6000fd5b503373ffffffffffffffffffffffffffffffffffffffff167fbf630ce062dbeaeb6c23a21390208b25de2ac16fb8502eab6054a70d9e34b8ec826040516112e59190612651565b60405180910390a2505050565b6000600660009054906101000a900473ffffffffffffffffffffffffffffffffffffffff1673ffffffffffffffffffffffffffffffffffffffff163373ffffffffffffffffffffffffffffffffffffffff161415801561137d57503373ffffffffffffffffffffffffffffffffffffffff168273ffffffffffffffffffffffffffffffffffffffff16145b156113b4576040517f2ffae41300000000000000000000000000000000000000000000000000000000815260040160405180910390fd5b600760008373ffffffffffffffffffffffffffffffffffffffff1673ffffffffffffffffffffffffffffffffffffffff168152602001908152602001600020549050919050565b600a6020528060005260406000206000915090505481565b600660009054906101000a900473ffffffffffffffffffffffffffffffffffffffff1681565b60008060008054906101000a900473ffffffffffffffffffffffffffffffffffffffff1673ffffffffffffffffffffffffffffffffffffffff168473ffffffffffffffffffffffffffffffffffffffff1614156114c457611498611e4f565b670de0b6b3a76400006114a9610838565b6114b39190612bcb565b6114bd919061297e565b90506114f4565b6114cc610838565b670de0b6b3a76400006114dd611e4f565b6114e79190612bcb565b6114f1919061297e565b90505b6000670de0b6b3a7640000828561150b9190612bcb565b611515919061297e565b9050809250505092915050565b60086020528060005260406000206000915090505481565b600660149054906101000a900460ff161561158a576040517f08c379a000000000000000000000000000000000000000000000000000000000815260040161158190612a40565b60405180910390fd5b6001600660146101000a81548160ff0219169083151502179055506000600760003373ffffffffffffffffffffffffffffffffffffffff1673ffffffffffffffffffffffffffffffffffffffff1681526020019081526020016000205490506000600354670de0b6b3a7640000836116029190612bcb565b61160c919061297e565b905060006064848361161e9190612bcb565b611628919061297e565b90506000670de0b6b3a764000061163d611e4f565b836116489190612bcb565b611652919061297e565b90506000670de0b6b3a7640000611667610838565b846116729190612bcb565b61167c919061297e565b9050600660009054906101000a900473ffffffffffffffffffffffffffffffffffffffff1673ffffffffffffffffffffffffffffffffffffffff163373ffffffffffffffffffffffffffffffffffffffff161480156116e65750600015156116e2610fd6565b1515145b8015611748575060025481836116fc9190612bcb565b600760003373ffffffffffffffffffffffffffffffffffffffff1673ffffffffffffffffffffffffffffffffffffffff1681526020019081526020016000205461174691906129af565b105b1561177f576040517fbf0ebd8400000000000000000000000000000000000000000000000000000000815260040160405180910390fd5b8160008054906101000a900473ffffffffffffffffffffffffffffffffffffffff1673ffffffffffffffffffffffffffffffffffffffff166370a08231306040518263ffffffff1660e01b81526004016117d991906127da565b60206040518083038186803b1580156117f157600080fd5b505afa158015611805573d6000803e3d6000fd5b505050506040513d601f19601f82011682018060405250810190611829919061289d565b10806118de575080600160009054906101000a900473ffffffffffffffffffffffffffffffffffffffff1673ffffffffffffffffffffffffffffffffffffffff166370a08231306040518263ffffffff1660e01b815260040161188c91906127da565b60206040518083038186803b1580156118a457600080fd5b505afa1580156118b8573d6000803e3d6000fd5b505050506040513d601f19601f820116820180604052508101906118dc919061289d565b105b15611915576040517fbf0ebd8400000000000000000000000000000000000000000000000000000000815260040160405180910390fd5b60008054906101000a900473ffffffffffffffffffffffffffffffffffffffff1673ffffffffffffffffffffffffffffffffffffffff1663a9059cbb33846040518363ffffffff1660e01b8152600401611970929190612af0565b602060405180830381600087803b15801561198a57600080fd5b505af115801561199e573d6000803e3d6000fd5b505050506040513d601f19601f820116820180604052508101906119c29190612ac3565b50600160009054906101000a900473ffffffffffffffffffffffffffffffffffffffff1673ffffffffffffffffffffffffffffffffffffffff1663a9059cbb33836040518363ffffffff1660e01b8152600401611a20929190612af0565b602060405180830381600087803b158015611a3a57600080fd5b505af1158015611a4e573d6000803e3d6000fd5b505050506040513d601f19601f82011682018060405250810190611a729190612ac3565b503373ffffffffffffffffffffffffffffffffffffffff167fbad053f5b243c76f17611a28d4554167bd09e3491be13032dd4af620e8e228728383604051611abb929190612c25565b60405180910390a250505050506000600660146101000a81548160ff02191690831515021790555050565b6000600454905090565b600660009054906101000a9050506000600a6000600660009054906101000a900473ffffffffffffffffffffffffffffffffffffffff1673ffffffffffffffffffffffffffffffffffffffff1673ffffffffffffffffffffffffffffffffffffffff168152602001908152602001600020541115611b9a576040517f17ebf42200000000000000000000000000000000000000000000000000000000815260040160405180910390fd5b42600a60003373ffffffffffffffffffffffffffffffffffffffff1673ffffffffffffffffffffffffffffffffffffffff1681526020019081526020016000208190555060008054906101000a900473ffffffffffffffffffffffffffffffffffffffff1673ffffffffffffffffffffffffffffffffffffffff166323b872dd3330856040518463ffffffff1660e01b8152600401611c3b93929190612a60565b602060405180830381600087803b158015611c5557600080fd5b505af1158015611c69573d6000803e3d6000fd5b505050506040513d601f19601f82011682018060405250810190611c8d9190612ac3565b50600160009054906101000a900473ffffffffffffffffffffffffffffffffffffffff1673ffffffffffffffffffffffffffffffffffffffff166323b872dd3330846040518463ffffffff1660e01b8152600401611ced93929190612a60565b602060405180830381600087803b158015611d0757600080fd5b505af1158015611d1b573d6000803e3d6000fd5b505050506040513d601f19601f82011682018060405250810190611d3f9190612ac3565b508082611d4c9190612bcb565b600281905550600254600381905550600254600760003373ffffffffffffffffffffffffffffffffffffffff1673ffffffffffffffffffffffffffffffffffffffff168152602001908152602001600020819055503373ffffffffffffffffffffffffffffffffffffffff167fb27d7e2f60a2022903d49f653fbb6f06e4fd14fd5f2291655fb7c499645ba6148383604051611de9929190612c25565b60405180910390a25050565b600160009054906101000a900473ffffffffffffffffffffffffffffffffffffffff1681565b6000611e25611e4f565b670de0b6b3a7640000611e36610838565b611e409190612bcb565b611e4a919061297e565b905090565b60008060009054906101000a900473ffffffffffffffffffffffffffffffffffffffff1673ffffffffffffffffffffffffffffffffffffffff166370a08231306040518263ffffffff1660e01b8152600401611eab91906127da565b60206040518083038186803b158015611ec357600080fd5b505afa158015611ed7573d6000803e3d6000fd5b505050506040513d601f19601f82011682018060405250810190611efb919061289d565b905090565b60008054906101000a900473ffffffffffffffffffffffffffffffffffffffff1681565b6000600554905090565b6000600660149054906101000a900460ff1615611f80576040517f08c379a0000000000000000000000000000000000000000000000000000000008152600401611f7790612a40565b60405180910390fd5b6001600660146101000a81548160ff021916908315150217905550600554341015611fd7576040517fb08ede0900000000000000000000000000000000000000000000000000000000815260040160405180910390fd5b60055460046000828254611feb91906128f9565b9250508190555060006005543461200291906129af565b9050600061200e611e4f565b905060008461201b610838565b61202591906128f9565b9050600081600354612037919061297e565b90506000818461204791906129af565b9050600160009054906101000a900473ffffffffffffffffffffffffffffffffffffffff1673ffffffffffffffffffffffffffffffffffffffff166323b872dd33308a6040518463ffffffff1660e01b81526004016120a893929190612a60565b602060405180830381600087803b1580156120c257600080fd5b505af11580156120d6573d6000803e3d6000fd5b505050506040513d601f19601f820116820180604052508101906120fa9190612ac3565b5060008054906101000a900473ffffffffffffffffffffffffffffffffffffffff1673ffffffffffffffffffffffffffffffffffffffff1663a9059cbb33836040518363ffffffff1660e01b8152600401612156929190612af0565b602060405180830381600087803b15801561217057600080fd5b505af1158015612184573d6000803e3d6000fd5b505050506040513d601f19601f820116820180604052508101906121a89190612ac3565b5060003373ffffffffffffffffffffffffffffffffffffffff16866040516121cf90612b4a565b60006040518083038185875af1925050503d806000811461220c576040519150601f19603f3d011682016040523d82523d6000602084013e612211565b606091505b5050905080612255576040517f08c379a000000000000000000000000000000000000000000000000000000000815260040161224c90612bab565b60405180910390fd5b7f6f32bb515641ec539b66bf327d21765de8c4200f94d348cee1dc835bb7532ab160008054906101000a900473ffffffffffffffffffffffffffffffffffffffff1661229f611e1b565b6040516122ad929190612af0565b60405180910390a17f6f32bb515641ec539b66bf327d21765de8c4200f94d348cee1dc835bb7532ab1600160009054906101000a900473ffffffffffffffffffffffffffffffffffffffff16612301612340565b60405161230f929190612af0565b60405180910390a18196505050505050506000600660146101000a81548160ff021916908315150217905550919050565b600061234a610838565b670de0b6b3a764000061235b611e4f565b6123659190612bcb565b61236f919061297e565b905090565b600660149054906101000a900460ff16156123c4576040517f08c379a00000000000000000000000000000000000000000000000000000000081526004016123bb90612a40565b60405180910390fd5b6001600660146101000a81548160ff0219169083151502179055508173ffffffffffffffffffffffffffffffffffffffff166323b872dd33306124078786611439565b6040518463ffffffff1660e01b815260040161242593929190612a60565b602060405180830381600087803b15801561243f57600080fd5b505af1158015612453573d6000803e3d6000fd5b505050506040513d601f19601f820116820180604052508101906124779190612ac3565b508273ffffffffffffffffffffffffffffffffffffffff166323b872dd3330846040518463ffffffff1660e01b81526004016124b593929190612a60565b602060405180830381600087803b1580156124cf57600080fd5b505af11580156124e3573d6000803e3d6000fd5b505050506040513d601f19601f820116820180604052508101906125079190612ac3565b506125128382611439565b8161251d9190612bcb565b600760003373ffffffffffffffffffffffffffffffffffffffff1673ffffffffffffffffffffffffffffffffffffffff168152602001908152602001600020600082825461256b91906128f9565b9250508190555061257c8382611439565b816125879190612bcb565b6003600082825461259891906128f9565b925050819055503373ffffffffffffffffffffffffffffffffffffffff167fb27d7e2f60a2022903d49f653fbb6f06e4fd14fd5f2291655fb7c499645ba6146125e18584611439565b836040516125f0929190612c25565b60405180910390a26000600660146101000a81548160ff021916908315150217905550505050565b600047905090565b60096020528060005260406000206000915090505481565b6000819050919050565b61264b81612638565b82525050565b60006020820190506126666000830184612642565b92915050565b600080fd5b600073ffffffffffffffffffffffffffffffffffffffff82169050919050565b600061269c82612671565b9050919050565b6126ac81612691565b81146126b757600080fd5b50565b6000813590506126c9816126a3565b92915050565b6000602082840312156126e5576126e461266c565b5b60006126f3848285016126ba565b91505092915050565b61270581612638565b811461271057600080fd5b50565b600081359050612722816126fc565b92915050565b6000806040838503121561273f5761273e61266c565b5b600061274d858286016126ba565b925050602061275e85828601612713565b9150509250929050565b60008115159050919050565b61277d81612768565b82525050565b60006020820190506127986000830184612774565b92915050565b6000602082840312156127b4576127b361266c565b5b60006127c284828501612713565b91505092915050565b6127d481612691565b82525050565b60006020820190506127ef60008301846127cb565b92915050565b6000806040838503121561280c5761280b61266c565b5b600061281a85828601612713565b925050602061282b85828601612713565b9150509250929050565b60008060006060848603121561284e5761284d61266c565b5b600061285c868287016126ba565b935050602061286d868287016126ba565b925050604061287e86828701612713565b9150509250925092565b600081519050612897816126fc565b92915050565b6000602082840312156128b3576128b261266c565b5b60006128c184828501612888565b91505092915050565b7f4e487b7100000000000000000000000000000000000000000000000000000000600052601160045260246000fd5b600061290482612638565b915061290f83612638565b9250827fffffffffffffffffffffffffffffffffffffffffffffffffffffffffffffffff03821115612944576129436128ca565b5b828201905092915050565b7f4e487b7100000000000000000000000000000000000000000000000000000000600052601260045260246000fd5b600061298982612638565b915061299483612638565b9250826129a4576129a361294f565b5b828204905092915050565b60006129ba82612638565b91506129c583612638565b9250828210156129d8576129d76128ca565b5b828203905092915050565b600082825260208201905092915050565b7f4e6f2072652d656e7472616e6379000000000000000000000000000000000000600082015250565b6000612a2a600e836129e3565b9150612a35826129f4565b602082019050919050565b60006020820190508181036000830152612a5981612a1d565b9050919050565b6000606082019050612a7560008301866127cb565b612a8260208301856127cb565b612a8f6040830184612642565b949350505050565b612aa081612768565b8114612aab57600080fd5b50565b600081519050612abd81612a97565b92915050565b600060208284031215612ad957612ad861266c565b5b6000612ae784828501612aae565b91505092915050565b6000604082019050612b0560008301856127cb565b612b126020830184612642565b9392505050565b600081905092915050565b50565b6000612b34600083612b19565b9150612b3f82612b24565b600082019050919050565b6000612b5582612b27565b9150819050919050565b7f4661696c656420746f2073656e64204574686572000000000000000000000000600082015250565b6000612b956014836129e3565b9150612ba082612b5f565b602082019050919050565b60006020820190508181036000830152612bc481612b88565b9050919050565b6000612bd682612638565b9150612be183612638565b9250817fffffffffffffffffffffffffffffffffffffffffffffffffffffffffffffffff0483118215151615612c1a57612c196128ca565b5b828202905092915050565b6000604082019050612c3a6000830185612642565b612c476020830184612642565b939250505056fea2646970667358221220b350b150652d4fbc6bea4f95a87823ae073e461c033c226212c871d3aca718c564736f6c63430008090033",
  "devdoc": {
    "details": "A decentralized liquidity pool contract for swapping assets and providing liquidity.",
    "kind": "dev",
    "methods": {
      "addInitialLiquidity(uint256,uint256)": {
        "details": "Function to add initial liquidity to the pool. Only callable by the owner.Needs the ERC-20 approval for transferFrom.",
        "params": {
          "_assetOneAmount": "The amount of the first asset to add.",
          "_assetTwoAmount": "The amount of the second asset to add."
        }
      },
      "addLiquidity(address,address,uint256)": {
        "details": "Function to add additional liquidity to the pool.Needs the ERC-20 approval for transferFrom.",
        "params": {
          "_amount": "The amount of the first asset to add.",
          "_asset": "The address of the first asset.",
          "_secondAsset": "The address of the second asset."
        }
      },
      "addressBalance()": {
        "details": "Function to get the current ETH balance of the contract.",
        "returns": {
          "_0": "The current ETH balance of the contract."
        }
      },
      "amountOfOppositeTokenNeeded(address,uint256)": {
        "details": "Function to get the second part of the liquidity token pair needed for providing liquidity.",
        "params": {
          "_amount": "The amount of the asset.",
          "_asset": "The address of the asset."
        },
        "returns": {
          "_0": "The quantity of the second asset needed for providing liquidity."
        }
      },
      "assetOnePrice()": {
        "details": "Function to get the current price of the first asset in terms of the second asset.",
        "returns": {
          "_0": "The current price of the first asset * 10**18."
        }
      },
      "assetTwoPrice()": {
        "details": "Function to get the current price of the second asset in terms of the first asset.",
        "returns": {
          "_0": "The current price of the second asset * 10**18."
        }
      },
      "changeSwapFee(uint256)": {
        "details": "Function to change the swap fee. Only callable by the owner.",
        "params": {
          "newSwapFee": "The new swap fee to set."
        }
      },
      "constructor": {
        "details": "Constructor to initialize the liquidity pool with two asset addresses.",
        "params": {
          "_assetOneAddress": "The address of the first asset.",
          "_assetTwoAddress": "The address of the second asset."
        }
      },
      "getAssetBalace(address)": {
        "details": "Function to get the current balance of a given asset held by the contract.",
        "params": {
          "_address": "The address of the asset."
        },
        "returns": {
          "_0": "The current balance of the asset."
        }
      },
      "getAssetOne()": {
        "details": "Function to get the amount of the first asset held by the contract.",
        "returns": {
          "_0": "The current balance of the first asset."
        }
      },
      "getAssetTwo()": {
        "details": "Function to get the amount of the second asset held by the contract.",
        "returns": {
          "_0": "The current balance of the second asset."
        }
      },
      "getLiquidity()": {
        "details": "Function to get the total liquidity in the pool.",
        "returns": {
          "_0": "The total liquidity in the pool."
        }
      },
      "getLpTokenQuantity(address)": {
        "details": "Function to get the quantity of LP tokens owned by a specific address.",
        "params": {
          "_address": "The address of the LP token holder."
        },
        "returns": {
          "_0": "The quantity of LP tokens owned by the address."
        }
      },
      "getSwapFee()": {
        "details": "Function to get the current swap fee percentage.",
        "returns": {
          "_0": "The current swap fee percentage."
        }
      },
      "getSwapQuantity(address,uint256)": {
        "details": "Function to get the quantity of the second asset that would be returned for a given amount of the first asset.",
        "params": {
          "_amount": "The amount of the first asset being sold.",
          "sellingAsset": "The address of the asset being sold."
        },
        "returns": {
          "_0": "The quantity of the second asset that would be returned"
        }
      },
      "getYield()": {
        "details": "Function to allow users to claim their yield. Can be called once a day."
      },
      "isTime()": {
        "details": "Function to check if enough time has passed for the user to claim yield.",
        "returns": {
          "_0": "Whether enough time has passed or not."
        }
      },
      "isTimeInitialLiquidity()": {
        "details": "Function to check if enough time has passed since the initial liquidity was provided.",
        "returns": {
          "_0": "Whether enough time has passed or not."
        }
      },
      "removeLiquidity(uint256)": {
        "details": "Function to remove liquidity from the pool.",
        "params": {
          "_amount": "The percentage of liquidity to withdraw(10 -> 10%)."
        }
      },
      "sellAssetOne(uint256)": {
        "details": "Function to sell the first asset and receive the second asset.",
        "params": {
          "_amount": "The amount of the first asset to sell."
        }
      },
      "sellAssetTwo(uint256)": {
        "details": "Function to sell the second asset and receive the first asset.",
        "params": {
          "_amount": "The amount of the second asset to sell."
        }
      },
      "yieldAmount()": {
        "details": "Function to get the current yield amount available in the pool.",
        "returns": {
          "_0": "The current yield amount."
        }
      }
    },
    "title": "LiquidityPool",
    "version": 1
  },
  "userdoc": {
    "kind": "user",
    "methods": {},
    "version": 1
  },
  "storageLayout": {
    "storage": [
      {
        "astId": 1186,
        "contract": "contracts/LiquidityPool.sol:LiquidityPool",
        "label": "assetOneAddress",
        "offset": 0,
        "slot": "0",
        "type": "t_address"
      },
      {
        "astId": 1188,
        "contract": "contracts/LiquidityPool.sol:LiquidityPool",
        "label": "assetTwoAddress",
        "offset": 0,
        "slot": "1",
        "type": "t_address"
      },
      {
        "astId": 1190,
        "contract": "contracts/LiquidityPool.sol:LiquidityPool",
        "label": "initialLiquidity",
        "offset": 0,
        "slot": "2",
        "type": "t_uint256"
      },
      {
        "astId": 1192,
        "contract": "contracts/LiquidityPool.sol:LiquidityPool",
        "label": "liquidity",
        "offset": 0,
        "slot": "3",
        "type": "t_uint256"
      },
      {
        "astId": 1194,
        "contract": "contracts/LiquidityPool.sol:LiquidityPool",
        "label": "yield",
        "offset": 0,
        "slot": "4",
        "type": "t_uint256"
      },
      {
        "astId": 1196,
        "contract": "contracts/LiquidityPool.sol:LiquidityPool",
        "label": "swapFee",
        "offset": 0,
        "slot": "5",
        "type": "t_uint256"
      },
      {
        "astId": 1198,
        "contract": "contracts/LiquidityPool.sol:LiquidityPool",
        "label": "owner",
        "offset": 0,
        "slot": "6",
        "type": "t_address"
      },
      {
        "astId": 1200,
        "contract": "contracts/LiquidityPool.sol:LiquidityPool",
        "label": "locked",
        "offset": 20,
        "slot": "6",
        "type": "t_bool"
      },
      {
        "astId": 1273,
        "contract": "contracts/LiquidityPool.sol:LiquidityPool",
        "label": "lpTokenQuantity",
        "offset": 0,
        "slot": "7",
        "type": "t_mapping(t_address,t_uint256)"
      },
      {
        "astId": 2043,
        "contract": "contracts/LiquidityPool.sol:LiquidityPool",
        "label": "yieldTaken",
        "offset": 0,
        "slot": "8",
        "type": "t_mapping(t_address,t_uint256)"
      },
      {
        "astId": 2149,
        "contract": "contracts/LiquidityPool.sol:LiquidityPool",
        "label": "lastYieldFarmedTime",
        "offset": 0,
        "slot": "9",
        "type": "t_mapping(t_address,t_uint256)"
      },
      {
        "astId": 2153,
        "contract": "contracts/LiquidityPool.sol:LiquidityPool",
        "label": "initialLiquidityProvidedTime",
        "offset": 0,
        "slot": "10",
        "type": "t_mapping(t_address,t_uint256)"
      }
    ],
    "types": {
      "t_address": {
        "encoding": "inplace",
        "label": "address",
        "numberOfBytes": "20"
      },
      "t_bool": {
        "encoding": "inplace",
        "label": "bool",
        "numberOfBytes": "1"
      },
      "t_mapping(t_address,t_uint256)": {
        "encoding": "mapping",
        "key": "t_address",
        "label": "mapping(address => uint256)",
        "numberOfBytes": "32",
        "value": "t_uint256"
      },
      "t_uint256": {
        "encoding": "inplace",
        "label": "uint256",
        "numberOfBytes": "32"
      }
    }
  }
}